{
	"ID-Mail.sol": {
		"IDMail": {
			"abi": [
				{
					"anonymous": false,
					"inputs": [
						{
							"indexed": true,
							"internalType": "address",
							"name": "_from",
							"type": "address"
						},
						{
							"indexed": true,
							"internalType": "address",
							"name": "_to",
							"type": "address"
						},
						{
							"indexed": true,
							"internalType": "uint256",
							"name": "_id",
							"type": "uint256"
						},
						{
							"indexed": false,
							"internalType": "string",
							"name": "_value",
							"type": "string"
						}
					],
					"name": "Sent",
					"type": "event"
				},
				{
					"inputs": [
						{
							"internalType": "address",
							"name": "_address",
							"type": "address"
						}
					],
					"name": "getKey",
					"outputs": [
						{
							"internalType": "string",
							"name": "",
							"type": "string"
						}
					],
					"stateMutability": "view",
					"type": "function"
				},
				{
					"inputs": [],
					"name": "getReceived",
					"outputs": [
						{
							"internalType": "uint256[]",
							"name": "",
							"type": "uint256[]"
						}
					],
					"stateMutability": "view",
					"type": "function"
				},
				{
					"inputs": [
						{
							"internalType": "address",
							"name": "_to",
							"type": "address"
						},
						{
							"internalType": "string",
							"name": "_value",
							"type": "string"
						}
					],
					"name": "send",
					"outputs": [],
					"stateMutability": "nonpayable",
					"type": "function"
				},
				{
					"inputs": [
						{
							"internalType": "string",
							"name": "_key",
							"type": "string"
						}
					],
					"name": "setKey",
					"outputs": [],
					"stateMutability": "nonpayable",
					"type": "function"
				}
			],
			"devdoc": {
				"kind": "dev",
				"methods": {
					"getKey(address)": {
						"details": "mendapatkan profil",
						"params": {
							"_address": "address dari query pengguna"
						}
					},
					"getReceived()": {
						"details": "return received mails",
						"returns": {
							"_0": "mails ke pengguna"
						}
					},
					"send(address,string)": {
						"details": "mengirim email ke pengguna"
					}
				},
				"version": 1
			},
			"evm": {
				"assembly": "    /* \"ID-Mail.sol\":105:1590  contract IDMail {... */\n  mstore(0x40, 0x80)\n  callvalue\n  dup1\n  iszero\n  tag_1\n  jumpi\n  0x00\n  dup1\n  revert\ntag_1:\n  pop\n  dataSize(sub_0)\n  dup1\n  dataOffset(sub_0)\n  0x00\n  codecopy\n  0x00\n  return\nstop\n\nsub_0: assembly {\n        /* \"ID-Mail.sol\":105:1590  contract IDMail {... */\n      mstore(0x40, 0x80)\n      callvalue\n      dup1\n      iszero\n      tag_1\n      jumpi\n      0x00\n      dup1\n      revert\n    tag_1:\n      pop\n      jumpi(tag_2, lt(calldatasize, 0x04))\n      shr(0xe0, calldataload(0x00))\n      dup1\n      0x55d0ad18\n      eq\n      tag_3\n      jumpi\n      dup1\n      0x93790f44\n      eq\n      tag_4\n      jumpi\n      dup1\n      0x99142b5f\n      eq\n      tag_5\n      jumpi\n      dup1\n      0xaf42d106\n      eq\n      tag_6\n      jumpi\n    tag_2:\n      0x00\n      dup1\n      revert\n        /* \"ID-Mail.sol\":1475:1587  function getReceived() public view returns (uint256[] memory) {... */\n    tag_3:\n      tag_7\n      tag_8\n      jump\t// in\n    tag_7:\n      mload(0x40)\n      tag_9\n      swap2\n      swap1\n      tag_10\n      jump\t// in\n    tag_9:\n      mload(0x40)\n      dup1\n      swap2\n      sub\n      swap1\n      return\n        /* \"ID-Mail.sol\":1262:1383  function getKey(address _address) public view returns (string memory) {... */\n    tag_4:\n      tag_11\n      0x04\n      dup1\n      calldatasize\n      sub\n      dup2\n      add\n      swap1\n      tag_12\n      swap2\n      swap1\n      tag_13\n      jump\t// in\n    tag_12:\n      tag_14\n      jump\t// in\n    tag_11:\n      mload(0x40)\n      tag_15\n      swap2\n      swap1\n      tag_16\n      jump\t// in\n    tag_15:\n      mload(0x40)\n      dup1\n      swap2\n      sub\n      swap1\n      return\n        /* \"ID-Mail.sol\":714:974  function send(address _to, string memory _value) public {... */\n    tag_5:\n      tag_17\n      0x04\n      dup1\n      calldatasize\n      sub\n      dup2\n      add\n      swap1\n      tag_18\n      swap2\n      swap1\n      tag_19\n      jump\t// in\n    tag_18:\n      tag_20\n      jump\t// in\n    tag_17:\n      stop\n        /* \"ID-Mail.sol\":1046:1156  function setKey(string memory _key) public {... */\n    tag_6:\n      tag_21\n      0x04\n      dup1\n      calldatasize\n      sub\n      dup2\n      add\n      swap1\n      tag_22\n      swap2\n      swap1\n      tag_23\n      jump\t// in\n    tag_22:\n      tag_24\n      jump\t// in\n    tag_21:\n      stop\n        /* \"ID-Mail.sol\":1475:1587  function getReceived() public view returns (uint256[] memory) {... */\n    tag_8:\n        /* \"ID-Mail.sol\":1519:1535  uint256[] memory */\n      0x60\n        /* \"ID-Mail.sol\":1555:1567  mailReceived */\n      0x01\n        /* \"ID-Mail.sol\":1555:1579  mailReceived[msg.sender] */\n      0x00\n        /* \"ID-Mail.sol\":1568:1578  msg.sender */\n      caller\n        /* \"ID-Mail.sol\":1555:1579  mailReceived[msg.sender] */\n      0xffffffffffffffffffffffffffffffffffffffff\n      and\n      0xffffffffffffffffffffffffffffffffffffffff\n      and\n      dup2\n      mstore\n      0x20\n      add\n      swap1\n      dup2\n      mstore\n      0x20\n      add\n      0x00\n      keccak256\n        /* \"ID-Mail.sol\":1548:1579  return mailReceived[msg.sender] */\n      dup1\n      sload\n      dup1\n      0x20\n      mul\n      0x20\n      add\n      mload(0x40)\n      swap1\n      dup2\n      add\n      0x40\n      mstore\n      dup1\n      swap3\n      swap2\n      swap1\n      dup2\n      dup2\n      mstore\n      0x20\n      add\n      dup3\n      dup1\n      sload\n      dup1\n      iszero\n      tag_26\n      jumpi\n      0x20\n      mul\n      dup3\n      add\n      swap2\n      swap1\n      0x00\n      mstore\n      keccak256(0x00, 0x20)\n      swap1\n    tag_27:\n      dup2\n      sload\n      dup2\n      mstore\n      0x20\n      add\n      swap1\n      0x01\n      add\n      swap1\n      dup1\n      dup4\n      gt\n      tag_27\n      jumpi\n    tag_26:\n      pop\n      pop\n      pop\n      pop\n      pop\n      swap1\n      pop\n        /* \"ID-Mail.sol\":1475:1587  function getReceived() public view returns (uint256[] memory) {... */\n      swap1\n      jump\t// out\n        /* \"ID-Mail.sol\":1262:1383  function getKey(address _address) public view returns (string memory) {... */\n    tag_14:\n        /* \"ID-Mail.sol\":1317:1330  string memory */\n      0x60\n        /* \"ID-Mail.sol\":1350:1358  profiles */\n      0x04\n        /* \"ID-Mail.sol\":1350:1368  profiles[_address] */\n      0x00\n        /* \"ID-Mail.sol\":1359:1367  _address */\n      dup4\n        /* \"ID-Mail.sol\":1350:1368  profiles[_address] */\n      0xffffffffffffffffffffffffffffffffffffffff\n      and\n      0xffffffffffffffffffffffffffffffffffffffff\n      and\n      dup2\n      mstore\n      0x20\n      add\n      swap1\n      dup2\n      mstore\n      0x20\n      add\n      0x00\n      keccak256\n        /* \"ID-Mail.sol\":1350:1375  profiles[_address].pubKey */\n      0x01\n      add\n        /* \"ID-Mail.sol\":1343:1375  return profiles[_address].pubKey */\n      dup1\n      sload\n      tag_29\n      swap1\n      tag_30\n      jump\t// in\n    tag_29:\n      dup1\n      0x1f\n      add\n      0x20\n      dup1\n      swap2\n      div\n      mul\n      0x20\n      add\n      mload(0x40)\n      swap1\n      dup2\n      add\n      0x40\n      mstore\n      dup1\n      swap3\n      swap2\n      swap1\n      dup2\n      dup2\n      mstore\n      0x20\n      add\n      dup3\n      dup1\n      sload\n      tag_31\n      swap1\n      tag_30\n      jump\t// in\n    tag_31:\n      dup1\n      iszero\n      tag_32\n      jumpi\n      dup1\n      0x1f\n      lt\n      tag_33\n      jumpi\n      0x0100\n      dup1\n      dup4\n      sload\n      div\n      mul\n      dup4\n      mstore\n      swap2\n      0x20\n      add\n      swap2\n      jump(tag_32)\n    tag_33:\n      dup3\n      add\n      swap2\n      swap1\n      0x00\n      mstore\n      keccak256(0x00, 0x20)\n      swap1\n    tag_34:\n      dup2\n      sload\n      dup2\n      mstore\n      swap1\n      0x01\n      add\n      swap1\n      0x20\n      add\n      dup1\n      dup4\n      gt\n      tag_34\n      jumpi\n      dup3\n      swap1\n      sub\n      0x1f\n      and\n      dup3\n      add\n      swap2\n    tag_32:\n      pop\n      pop\n      pop\n      pop\n      pop\n      swap1\n      pop\n        /* \"ID-Mail.sol\":1262:1383  function getKey(address _address) public view returns (string memory) {... */\n      swap2\n      swap1\n      pop\n      jump\t// out\n        /* \"ID-Mail.sol\":714:974  function send(address _to, string memory _value) public {... */\n    tag_20:\n        /* \"ID-Mail.sol\":803:809  _value */\n      dup1\n        /* \"ID-Mail.sol\":781:792  mailContent */\n      0x03\n        /* \"ID-Mail.sol\":781:800  mailContent[mailId] */\n      0x00\n        /* \"ID-Mail.sol\":793:799  mailId */\n      dup1\n      sload\n        /* \"ID-Mail.sol\":781:800  mailContent[mailId] */\n      dup2\n      mstore\n      0x20\n      add\n      swap1\n      dup2\n      mstore\n      0x20\n      add\n      0x00\n      keccak256\n        /* \"ID-Mail.sol\":781:809  mailContent[mailId] = _value */\n      swap1\n      dup2\n      tag_36\n      swap2\n      swap1\n      tag_37\n      jump\t// in\n    tag_36:\n      pop\n        /* \"ID-Mail.sol\":820:832  mailReceived */\n      0x01\n        /* \"ID-Mail.sol\":820:837  mailReceived[_to] */\n      0x00\n        /* \"ID-Mail.sol\":833:836  _to */\n      dup4\n        /* \"ID-Mail.sol\":820:837  mailReceived[_to] */\n      0xffffffffffffffffffffffffffffffffffffffff\n      and\n      0xffffffffffffffffffffffffffffffffffffffff\n      and\n      dup2\n      mstore\n      0x20\n      add\n      swap1\n      dup2\n      mstore\n      0x20\n      add\n      0x00\n      keccak256\n        /* \"ID-Mail.sol\":843:849  mailId */\n      sload(0x00)\n        /* \"ID-Mail.sol\":820:850  mailReceived[_to].push(mailId) */\n      swap1\n      dup1\n      0x01\n      dup2\n      sload\n      add\n      dup1\n      dup3\n      sstore\n      dup1\n      swap2\n      pop\n      pop\n      0x01\n      swap1\n      sub\n      swap1\n      0x00\n      mstore\n      keccak256(0x00, 0x20)\n      add\n      0x00\n      swap1\n      swap2\n      swap1\n      swap2\n      swap1\n      swap2\n      pop\n      sstore\n        /* \"ID-Mail.sol\":861:869  mailSent */\n      0x02\n        /* \"ID-Mail.sol\":861:881  mailSent[msg.sender] */\n      0x00\n        /* \"ID-Mail.sol\":870:880  msg.sender */\n      caller\n        /* \"ID-Mail.sol\":861:881  mailSent[msg.sender] */\n      0xffffffffffffffffffffffffffffffffffffffff\n      and\n      0xffffffffffffffffffffffffffffffffffffffff\n      and\n      dup2\n      mstore\n      0x20\n      add\n      swap1\n      dup2\n      mstore\n      0x20\n      add\n      0x00\n      keccak256\n        /* \"ID-Mail.sol\":887:893  mailId */\n      sload(0x00)\n        /* \"ID-Mail.sol\":861:894  mailSent[msg.sender].push(mailId) */\n      swap1\n      dup1\n      0x01\n      dup2\n      sload\n      add\n      dup1\n      dup3\n      sstore\n      dup1\n      swap2\n      pop\n      pop\n      0x01\n      swap1\n      sub\n      swap1\n      0x00\n      mstore\n      keccak256(0x00, 0x20)\n      add\n      0x00\n      swap1\n      swap2\n      swap1\n      swap2\n      swap1\n      swap2\n      pop\n      sstore\n        /* \"ID-Mail.sol\":932:938  mailId */\n      sload(0x00)\n        /* \"ID-Mail.sol\":927:930  _to */\n      dup3\n        /* \"ID-Mail.sol\":910:947  Sent(msg.sender, _to, mailId, _value) */\n      0xffffffffffffffffffffffffffffffffffffffff\n      and\n        /* \"ID-Mail.sol\":915:925  msg.sender */\n      caller\n        /* \"ID-Mail.sol\":910:947  Sent(msg.sender, _to, mailId, _value) */\n      0xffffffffffffffffffffffffffffffffffffffff\n      and\n      0x02605d54d67ccbe0064a8ce6c39465102dd02b85ad8709391c5953a27083964b\n        /* \"ID-Mail.sol\":940:946  _value */\n      dup5\n        /* \"ID-Mail.sol\":910:947  Sent(msg.sender, _to, mailId, _value) */\n      mload(0x40)\n      tag_40\n      swap2\n      swap1\n      tag_16\n      jump\t// in\n    tag_40:\n      mload(0x40)\n      dup1\n      swap2\n      sub\n      swap1\n      log4\n        /* \"ID-Mail.sol\":958:964  mailId */\n      0x00\n      dup1\n        /* \"ID-Mail.sol\":958:966  mailId++ */\n      dup2\n      sload\n      dup1\n      swap3\n      swap2\n      swap1\n      tag_41\n      swap1\n      tag_42\n      jump\t// in\n    tag_41:\n      swap2\n      swap1\n      pop\n      sstore\n      pop\n        /* \"ID-Mail.sol\":714:974  function send(address _to, string memory _value) public {... */\n      pop\n      pop\n      jump\t// out\n        /* \"ID-Mail.sol\":1046:1156  function setKey(string memory _key) public {... */\n    tag_24:\n        /* \"ID-Mail.sol\":1123:1148  Profile(msg.sender, _key) */\n      mload(0x40)\n      dup1\n      0x40\n      add\n      0x40\n      mstore\n      dup1\n        /* \"ID-Mail.sol\":1131:1141  msg.sender */\n      caller\n        /* \"ID-Mail.sol\":1123:1148  Profile(msg.sender, _key) */\n      0xffffffffffffffffffffffffffffffffffffffff\n      and\n      dup2\n      mstore\n      0x20\n      add\n        /* \"ID-Mail.sol\":1143:1147  _key */\n      dup3\n        /* \"ID-Mail.sol\":1123:1148  Profile(msg.sender, _key) */\n      dup2\n      mstore\n      pop\n        /* \"ID-Mail.sol\":1100:1108  profiles */\n      0x04\n        /* \"ID-Mail.sol\":1100:1120  profiles[msg.sender] */\n      0x00\n        /* \"ID-Mail.sol\":1109:1119  msg.sender */\n      caller\n        /* \"ID-Mail.sol\":1100:1120  profiles[msg.sender] */\n      0xffffffffffffffffffffffffffffffffffffffff\n      and\n      0xffffffffffffffffffffffffffffffffffffffff\n      and\n      dup2\n      mstore\n      0x20\n      add\n      swap1\n      dup2\n      mstore\n      0x20\n      add\n      0x00\n      keccak256\n        /* \"ID-Mail.sol\":1100:1148  profiles[msg.sender] = Profile(msg.sender, _key) */\n      0x00\n      dup3\n      add\n      mload\n      dup2\n      0x00\n      add\n      exp(0x0100, 0x00)\n      dup2\n      sload\n      dup2\n      0xffffffffffffffffffffffffffffffffffffffff\n      mul\n      not\n      and\n      swap1\n      dup4\n      0xffffffffffffffffffffffffffffffffffffffff\n      and\n      mul\n      or\n      swap1\n      sstore\n      pop\n      0x20\n      dup3\n      add\n      mload\n      dup2\n      0x01\n      add\n      swap1\n      dup2\n      tag_44\n      swap2\n      swap1\n      tag_37\n      jump\t// in\n    tag_44:\n      pop\n      swap1\n      pop\n      pop\n        /* \"ID-Mail.sol\":1046:1156  function setKey(string memory _key) public {... */\n      pop\n      jump\t// out\n        /* \"#utility.yul\":7:121   */\n    tag_45:\n        /* \"#utility.yul\":74:80   */\n      0x00\n        /* \"#utility.yul\":108:113   */\n      dup2\n        /* \"#utility.yul\":102:114   */\n      mload\n        /* \"#utility.yul\":92:114   */\n      swap1\n      pop\n        /* \"#utility.yul\":7:121   */\n      swap2\n      swap1\n      pop\n      jump\t// out\n        /* \"#utility.yul\":127:311   */\n    tag_46:\n        /* \"#utility.yul\":226:237   */\n      0x00\n        /* \"#utility.yul\":260:266   */\n      dup3\n        /* \"#utility.yul\":255:258   */\n      dup3\n        /* \"#utility.yul\":248:267   */\n      mstore\n        /* \"#utility.yul\":300:304   */\n      0x20\n        /* \"#utility.yul\":295:298   */\n      dup3\n        /* \"#utility.yul\":291:305   */\n      add\n        /* \"#utility.yul\":276:305   */\n      swap1\n      pop\n        /* \"#utility.yul\":127:311   */\n      swap3\n      swap2\n      pop\n      pop\n      jump\t// out\n        /* \"#utility.yul\":317:449   */\n    tag_47:\n        /* \"#utility.yul\":384:388   */\n      0x00\n        /* \"#utility.yul\":407:410   */\n      dup2\n        /* \"#utility.yul\":399:410   */\n      swap1\n      pop\n        /* \"#utility.yul\":437:441   */\n      0x20\n        /* \"#utility.yul\":432:435   */\n      dup3\n        /* \"#utility.yul\":428:442   */\n      add\n        /* \"#utility.yul\":420:442   */\n      swap1\n      pop\n        /* \"#utility.yul\":317:449   */\n      swap2\n      swap1\n      pop\n      jump\t// out\n        /* \"#utility.yul\":455:532   */\n    tag_48:\n        /* \"#utility.yul\":492:499   */\n      0x00\n        /* \"#utility.yul\":521:526   */\n      dup2\n        /* \"#utility.yul\":510:526   */\n      swap1\n      pop\n        /* \"#utility.yul\":455:532   */\n      swap2\n      swap1\n      pop\n      jump\t// out\n        /* \"#utility.yul\":538:646   */\n    tag_49:\n        /* \"#utility.yul\":615:639   */\n      tag_97\n        /* \"#utility.yul\":633:638   */\n      dup2\n        /* \"#utility.yul\":615:639   */\n      tag_48\n      jump\t// in\n    tag_97:\n        /* \"#utility.yul\":610:613   */\n      dup3\n        /* \"#utility.yul\":603:640   */\n      mstore\n        /* \"#utility.yul\":538:646   */\n      pop\n      pop\n      jump\t// out\n        /* \"#utility.yul\":652:831   */\n    tag_50:\n        /* \"#utility.yul\":721:731   */\n      0x00\n        /* \"#utility.yul\":742:788   */\n      tag_99\n        /* \"#utility.yul\":784:787   */\n      dup4\n        /* \"#utility.yul\":776:782   */\n      dup4\n        /* \"#utility.yul\":742:788   */\n      tag_49\n      jump\t// in\n    tag_99:\n        /* \"#utility.yul\":820:824   */\n      0x20\n        /* \"#utility.yul\":815:818   */\n      dup4\n        /* \"#utility.yul\":811:825   */\n      add\n        /* \"#utility.yul\":797:825   */\n      swap1\n      pop\n        /* \"#utility.yul\":652:831   */\n      swap3\n      swap2\n      pop\n      pop\n      jump\t// out\n        /* \"#utility.yul\":837:950   */\n    tag_51:\n        /* \"#utility.yul\":907:911   */\n      0x00\n        /* \"#utility.yul\":939:943   */\n      0x20\n        /* \"#utility.yul\":934:937   */\n      dup3\n        /* \"#utility.yul\":930:944   */\n      add\n        /* \"#utility.yul\":922:944   */\n      swap1\n      pop\n        /* \"#utility.yul\":837:950   */\n      swap2\n      swap1\n      pop\n      jump\t// out\n        /* \"#utility.yul\":986:1718   */\n    tag_52:\n        /* \"#utility.yul\":1105:1108   */\n      0x00\n        /* \"#utility.yul\":1134:1188   */\n      tag_102\n        /* \"#utility.yul\":1182:1187   */\n      dup3\n        /* \"#utility.yul\":1134:1188   */\n      tag_45\n      jump\t// in\n    tag_102:\n        /* \"#utility.yul\":1204:1290   */\n      tag_103\n        /* \"#utility.yul\":1283:1289   */\n      dup2\n        /* \"#utility.yul\":1278:1281   */\n      dup6\n        /* \"#utility.yul\":1204:1290   */\n      tag_46\n      jump\t// in\n    tag_103:\n        /* \"#utility.yul\":1197:1290   */\n      swap4\n      pop\n        /* \"#utility.yul\":1314:1370   */\n      tag_104\n        /* \"#utility.yul\":1364:1369   */\n      dup4\n        /* \"#utility.yul\":1314:1370   */\n      tag_47\n      jump\t// in\n    tag_104:\n        /* \"#utility.yul\":1393:1400   */\n      dup1\n        /* \"#utility.yul\":1424:1425   */\n      0x00\n        /* \"#utility.yul\":1409:1693   */\n    tag_105:\n        /* \"#utility.yul\":1434:1440   */\n      dup4\n        /* \"#utility.yul\":1431:1432   */\n      dup2\n        /* \"#utility.yul\":1428:1441   */\n      lt\n        /* \"#utility.yul\":1409:1693   */\n      iszero\n      tag_107\n      jumpi\n        /* \"#utility.yul\":1510:1516   */\n      dup2\n        /* \"#utility.yul\":1504:1517   */\n      mload\n        /* \"#utility.yul\":1537:1600   */\n      tag_108\n        /* \"#utility.yul\":1596:1599   */\n      dup9\n        /* \"#utility.yul\":1581:1594   */\n      dup3\n        /* \"#utility.yul\":1537:1600   */\n      tag_50\n      jump\t// in\n    tag_108:\n        /* \"#utility.yul\":1530:1600   */\n      swap8\n      pop\n        /* \"#utility.yul\":1623:1683   */\n      tag_109\n        /* \"#utility.yul\":1676:1682   */\n      dup4\n        /* \"#utility.yul\":1623:1683   */\n      tag_51\n      jump\t// in\n    tag_109:\n        /* \"#utility.yul\":1613:1683   */\n      swap3\n      pop\n        /* \"#utility.yul\":1469:1693   */\n      pop\n        /* \"#utility.yul\":1456:1457   */\n      0x01\n        /* \"#utility.yul\":1453:1454   */\n      dup2\n        /* \"#utility.yul\":1449:1458   */\n      add\n        /* \"#utility.yul\":1444:1458   */\n      swap1\n      pop\n        /* \"#utility.yul\":1409:1693   */\n      jump(tag_105)\n    tag_107:\n        /* \"#utility.yul\":1413:1427   */\n      pop\n        /* \"#utility.yul\":1709:1712   */\n      dup6\n        /* \"#utility.yul\":1702:1712   */\n      swap4\n      pop\n        /* \"#utility.yul\":1110:1718   */\n      pop\n      pop\n      pop\n        /* \"#utility.yul\":986:1718   */\n      swap3\n      swap2\n      pop\n      pop\n      jump\t// out\n        /* \"#utility.yul\":1724:2097   */\n    tag_10:\n        /* \"#utility.yul\":1867:1871   */\n      0x00\n        /* \"#utility.yul\":1905:1907   */\n      0x20\n        /* \"#utility.yul\":1894:1903   */\n      dup3\n        /* \"#utility.yul\":1890:1908   */\n      add\n        /* \"#utility.yul\":1882:1908   */\n      swap1\n      pop\n        /* \"#utility.yul\":1954:1963   */\n      dup2\n        /* \"#utility.yul\":1948:1952   */\n      dup2\n        /* \"#utility.yul\":1944:1964   */\n      sub\n        /* \"#utility.yul\":1940:1941   */\n      0x00\n        /* \"#utility.yul\":1929:1938   */\n      dup4\n        /* \"#utility.yul\":1925:1942   */\n      add\n        /* \"#utility.yul\":1918:1965   */\n      mstore\n        /* \"#utility.yul\":1982:2090   */\n      tag_111\n        /* \"#utility.yul\":2085:2089   */\n      dup2\n        /* \"#utility.yul\":2076:2082   */\n      dup5\n        /* \"#utility.yul\":1982:2090   */\n      tag_52\n      jump\t// in\n    tag_111:\n        /* \"#utility.yul\":1974:2090   */\n      swap1\n      pop\n        /* \"#utility.yul\":1724:2097   */\n      swap3\n      swap2\n      pop\n      pop\n      jump\t// out\n        /* \"#utility.yul\":2103:2178   */\n    tag_53:\n        /* \"#utility.yul\":2136:2142   */\n      0x00\n        /* \"#utility.yul\":2169:2171   */\n      0x40\n        /* \"#utility.yul\":2163:2172   */\n      mload\n        /* \"#utility.yul\":2153:2172   */\n      swap1\n      pop\n        /* \"#utility.yul\":2103:2178   */\n      swap1\n      jump\t// out\n        /* \"#utility.yul\":2184:2301   */\n    tag_54:\n        /* \"#utility.yul\":2293:2294   */\n      0x00\n        /* \"#utility.yul\":2290:2291   */\n      dup1\n        /* \"#utility.yul\":2283:2295   */\n      revert\n        /* \"#utility.yul\":2307:2424   */\n    tag_55:\n        /* \"#utility.yul\":2416:2417   */\n      0x00\n        /* \"#utility.yul\":2413:2414   */\n      dup1\n        /* \"#utility.yul\":2406:2418   */\n      revert\n        /* \"#utility.yul\":2430:2556   */\n    tag_56:\n        /* \"#utility.yul\":2467:2474   */\n      0x00\n        /* \"#utility.yul\":2507:2549   */\n      0xffffffffffffffffffffffffffffffffffffffff\n        /* \"#utility.yul\":2500:2505   */\n      dup3\n        /* \"#utility.yul\":2496:2550   */\n      and\n        /* \"#utility.yul\":2485:2550   */\n      swap1\n      pop\n        /* \"#utility.yul\":2430:2556   */\n      swap2\n      swap1\n      pop\n      jump\t// out\n        /* \"#utility.yul\":2562:2658   */\n    tag_57:\n        /* \"#utility.yul\":2599:2606   */\n      0x00\n        /* \"#utility.yul\":2628:2652   */\n      tag_117\n        /* \"#utility.yul\":2646:2651   */\n      dup3\n        /* \"#utility.yul\":2628:2652   */\n      tag_56\n      jump\t// in\n    tag_117:\n        /* \"#utility.yul\":2617:2652   */\n      swap1\n      pop\n        /* \"#utility.yul\":2562:2658   */\n      swap2\n      swap1\n      pop\n      jump\t// out\n        /* \"#utility.yul\":2664:2786   */\n    tag_58:\n        /* \"#utility.yul\":2737:2761   */\n      tag_119\n        /* \"#utility.yul\":2755:2760   */\n      dup2\n        /* \"#utility.yul\":2737:2761   */\n      tag_57\n      jump\t// in\n    tag_119:\n        /* \"#utility.yul\":2730:2735   */\n      dup2\n        /* \"#utility.yul\":2727:2762   */\n      eq\n        /* \"#utility.yul\":2717:2780   */\n      tag_120\n      jumpi\n        /* \"#utility.yul\":2776:2777   */\n      0x00\n        /* \"#utility.yul\":2773:2774   */\n      dup1\n        /* \"#utility.yul\":2766:2778   */\n      revert\n        /* \"#utility.yul\":2717:2780   */\n    tag_120:\n        /* \"#utility.yul\":2664:2786   */\n      pop\n      jump\t// out\n        /* \"#utility.yul\":2792:2931   */\n    tag_59:\n        /* \"#utility.yul\":2838:2843   */\n      0x00\n        /* \"#utility.yul\":2876:2882   */\n      dup2\n        /* \"#utility.yul\":2863:2883   */\n      calldataload\n        /* \"#utility.yul\":2854:2883   */\n      swap1\n      pop\n        /* \"#utility.yul\":2892:2925   */\n      tag_122\n        /* \"#utility.yul\":2919:2924   */\n      dup2\n        /* \"#utility.yul\":2892:2925   */\n      tag_58\n      jump\t// in\n    tag_122:\n        /* \"#utility.yul\":2792:2931   */\n      swap3\n      swap2\n      pop\n      pop\n      jump\t// out\n        /* \"#utility.yul\":2937:3266   */\n    tag_13:\n        /* \"#utility.yul\":2996:3002   */\n      0x00\n        /* \"#utility.yul\":3045:3047   */\n      0x20\n        /* \"#utility.yul\":3033:3042   */\n      dup3\n        /* \"#utility.yul\":3024:3031   */\n      dup5\n        /* \"#utility.yul\":3020:3043   */\n      sub\n        /* \"#utility.yul\":3016:3048   */\n      slt\n        /* \"#utility.yul\":3013:3132   */\n      iszero\n      tag_124\n      jumpi\n        /* \"#utility.yul\":3051:3130   */\n      tag_125\n      tag_54\n      jump\t// in\n    tag_125:\n        /* \"#utility.yul\":3013:3132   */\n    tag_124:\n        /* \"#utility.yul\":3171:3172   */\n      0x00\n        /* \"#utility.yul\":3196:3249   */\n      tag_126\n        /* \"#utility.yul\":3241:3248   */\n      dup5\n        /* \"#utility.yul\":3232:3238   */\n      dup3\n        /* \"#utility.yul\":3221:3230   */\n      dup6\n        /* \"#utility.yul\":3217:3239   */\n      add\n        /* \"#utility.yul\":3196:3249   */\n      tag_59\n      jump\t// in\n    tag_126:\n        /* \"#utility.yul\":3186:3249   */\n      swap2\n      pop\n        /* \"#utility.yul\":3142:3259   */\n      pop\n        /* \"#utility.yul\":2937:3266   */\n      swap3\n      swap2\n      pop\n      pop\n      jump\t// out\n        /* \"#utility.yul\":3272:3371   */\n    tag_60:\n        /* \"#utility.yul\":3324:3330   */\n      0x00\n        /* \"#utility.yul\":3358:3363   */\n      dup2\n        /* \"#utility.yul\":3352:3364   */\n      mload\n        /* \"#utility.yul\":3342:3364   */\n      swap1\n      pop\n        /* \"#utility.yul\":3272:3371   */\n      swap2\n      swap1\n      pop\n      jump\t// out\n        /* \"#utility.yul\":3377:3546   */\n    tag_61:\n        /* \"#utility.yul\":3461:3472   */\n      0x00\n        /* \"#utility.yul\":3495:3501   */\n      dup3\n        /* \"#utility.yul\":3490:3493   */\n      dup3\n        /* \"#utility.yul\":3483:3502   */\n      mstore\n        /* \"#utility.yul\":3535:3539   */\n      0x20\n        /* \"#utility.yul\":3530:3533   */\n      dup3\n        /* \"#utility.yul\":3526:3540   */\n      add\n        /* \"#utility.yul\":3511:3540   */\n      swap1\n      pop\n        /* \"#utility.yul\":3377:3546   */\n      swap3\n      swap2\n      pop\n      pop\n      jump\t// out\n        /* \"#utility.yul\":3552:3798   */\n    tag_62:\n        /* \"#utility.yul\":3633:3634   */\n      0x00\n        /* \"#utility.yul\":3643:3756   */\n    tag_130:\n        /* \"#utility.yul\":3657:3663   */\n      dup4\n        /* \"#utility.yul\":3654:3655   */\n      dup2\n        /* \"#utility.yul\":3651:3664   */\n      lt\n        /* \"#utility.yul\":3643:3756   */\n      iszero\n      tag_132\n      jumpi\n        /* \"#utility.yul\":3742:3743   */\n      dup1\n        /* \"#utility.yul\":3737:3740   */\n      dup3\n        /* \"#utility.yul\":3733:3744   */\n      add\n        /* \"#utility.yul\":3727:3745   */\n      mload\n        /* \"#utility.yul\":3723:3724   */\n      dup2\n        /* \"#utility.yul\":3718:3721   */\n      dup5\n        /* \"#utility.yul\":3714:3725   */\n      add\n        /* \"#utility.yul\":3707:3746   */\n      mstore\n        /* \"#utility.yul\":3679:3681   */\n      0x20\n        /* \"#utility.yul\":3676:3677   */\n      dup2\n        /* \"#utility.yul\":3672:3682   */\n      add\n        /* \"#utility.yul\":3667:3682   */\n      swap1\n      pop\n        /* \"#utility.yul\":3643:3756   */\n      jump(tag_130)\n    tag_132:\n        /* \"#utility.yul\":3790:3791   */\n      0x00\n        /* \"#utility.yul\":3781:3787   */\n      dup5\n        /* \"#utility.yul\":3776:3779   */\n      dup5\n        /* \"#utility.yul\":3772:3788   */\n      add\n        /* \"#utility.yul\":3765:3792   */\n      mstore\n        /* \"#utility.yul\":3614:3798   */\n      pop\n        /* \"#utility.yul\":3552:3798   */\n      pop\n      pop\n      pop\n      jump\t// out\n        /* \"#utility.yul\":3804:3906   */\n    tag_63:\n        /* \"#utility.yul\":3845:3851   */\n      0x00\n        /* \"#utility.yul\":3896:3898   */\n      0x1f\n        /* \"#utility.yul\":3892:3899   */\n      not\n        /* \"#utility.yul\":3887:3889   */\n      0x1f\n        /* \"#utility.yul\":3880:3885   */\n      dup4\n        /* \"#utility.yul\":3876:3890   */\n      add\n        /* \"#utility.yul\":3872:3900   */\n      and\n        /* \"#utility.yul\":3862:3900   */\n      swap1\n      pop\n        /* \"#utility.yul\":3804:3906   */\n      swap2\n      swap1\n      pop\n      jump\t// out\n        /* \"#utility.yul\":3912:4289   */\n    tag_64:\n        /* \"#utility.yul\":4000:4003   */\n      0x00\n        /* \"#utility.yul\":4028:4067   */\n      tag_135\n        /* \"#utility.yul\":4061:4066   */\n      dup3\n        /* \"#utility.yul\":4028:4067   */\n      tag_60\n      jump\t// in\n    tag_135:\n        /* \"#utility.yul\":4083:4154   */\n      tag_136\n        /* \"#utility.yul\":4147:4153   */\n      dup2\n        /* \"#utility.yul\":4142:4145   */\n      dup6\n        /* \"#utility.yul\":4083:4154   */\n      tag_61\n      jump\t// in\n    tag_136:\n        /* \"#utility.yul\":4076:4154   */\n      swap4\n      pop\n        /* \"#utility.yul\":4163:4228   */\n      tag_137\n        /* \"#utility.yul\":4221:4227   */\n      dup2\n        /* \"#utility.yul\":4216:4219   */\n      dup6\n        /* \"#utility.yul\":4209:4213   */\n      0x20\n        /* \"#utility.yul\":4202:4207   */\n      dup7\n        /* \"#utility.yul\":4198:4214   */\n      add\n        /* \"#utility.yul\":4163:4228   */\n      tag_62\n      jump\t// in\n    tag_137:\n        /* \"#utility.yul\":4253:4282   */\n      tag_138\n        /* \"#utility.yul\":4275:4281   */\n      dup2\n        /* \"#utility.yul\":4253:4282   */\n      tag_63\n      jump\t// in\n    tag_138:\n        /* \"#utility.yul\":4248:4251   */\n      dup5\n        /* \"#utility.yul\":4244:4283   */\n      add\n        /* \"#utility.yul\":4237:4283   */\n      swap2\n      pop\n        /* \"#utility.yul\":4004:4289   */\n      pop\n        /* \"#utility.yul\":3912:4289   */\n      swap3\n      swap2\n      pop\n      pop\n      jump\t// out\n        /* \"#utility.yul\":4295:4608   */\n    tag_16:\n        /* \"#utility.yul\":4408:4412   */\n      0x00\n        /* \"#utility.yul\":4446:4448   */\n      0x20\n        /* \"#utility.yul\":4435:4444   */\n      dup3\n        /* \"#utility.yul\":4431:4449   */\n      add\n        /* \"#utility.yul\":4423:4449   */\n      swap1\n      pop\n        /* \"#utility.yul\":4495:4504   */\n      dup2\n        /* \"#utility.yul\":4489:4493   */\n      dup2\n        /* \"#utility.yul\":4485:4505   */\n      sub\n        /* \"#utility.yul\":4481:4482   */\n      0x00\n        /* \"#utility.yul\":4470:4479   */\n      dup4\n        /* \"#utility.yul\":4466:4483   */\n      add\n        /* \"#utility.yul\":4459:4506   */\n      mstore\n        /* \"#utility.yul\":4523:4601   */\n      tag_140\n        /* \"#utility.yul\":4596:4600   */\n      dup2\n        /* \"#utility.yul\":4587:4593   */\n      dup5\n        /* \"#utility.yul\":4523:4601   */\n      tag_64\n      jump\t// in\n    tag_140:\n        /* \"#utility.yul\":4515:4601   */\n      swap1\n      pop\n        /* \"#utility.yul\":4295:4608   */\n      swap3\n      swap2\n      pop\n      pop\n      jump\t// out\n        /* \"#utility.yul\":4614:4731   */\n    tag_65:\n        /* \"#utility.yul\":4723:4724   */\n      0x00\n        /* \"#utility.yul\":4720:4721   */\n      dup1\n        /* \"#utility.yul\":4713:4725   */\n      revert\n        /* \"#utility.yul\":4737:4854   */\n    tag_66:\n        /* \"#utility.yul\":4846:4847   */\n      0x00\n        /* \"#utility.yul\":4843:4844   */\n      dup1\n        /* \"#utility.yul\":4836:4848   */\n      revert\n        /* \"#utility.yul\":4860:5040   */\n    tag_67:\n        /* \"#utility.yul\":4908:4985   */\n      0x4e487b7100000000000000000000000000000000000000000000000000000000\n        /* \"#utility.yul\":4905:4906   */\n      0x00\n        /* \"#utility.yul\":4898:4986   */\n      mstore\n        /* \"#utility.yul\":5005:5009   */\n      0x41\n        /* \"#utility.yul\":5002:5003   */\n      0x04\n        /* \"#utility.yul\":4995:5010   */\n      mstore\n        /* \"#utility.yul\":5029:5033   */\n      0x24\n        /* \"#utility.yul\":5026:5027   */\n      0x00\n        /* \"#utility.yul\":5019:5034   */\n      revert\n        /* \"#utility.yul\":5046:5327   */\n    tag_68:\n        /* \"#utility.yul\":5129:5156   */\n      tag_145\n        /* \"#utility.yul\":5151:5155   */\n      dup3\n        /* \"#utility.yul\":5129:5156   */\n      tag_63\n      jump\t// in\n    tag_145:\n        /* \"#utility.yul\":5121:5127   */\n      dup2\n        /* \"#utility.yul\":5117:5157   */\n      add\n        /* \"#utility.yul\":5259:5265   */\n      dup2\n        /* \"#utility.yul\":5247:5257   */\n      dup2\n        /* \"#utility.yul\":5244:5266   */\n      lt\n        /* \"#utility.yul\":5223:5241   */\n      0xffffffffffffffff\n        /* \"#utility.yul\":5211:5221   */\n      dup3\n        /* \"#utility.yul\":5208:5242   */\n      gt\n        /* \"#utility.yul\":5205:5267   */\n      or\n        /* \"#utility.yul\":5202:5290   */\n      iszero\n      tag_146\n      jumpi\n        /* \"#utility.yul\":5270:5288   */\n      tag_147\n      tag_67\n      jump\t// in\n    tag_147:\n        /* \"#utility.yul\":5202:5290   */\n    tag_146:\n        /* \"#utility.yul\":5310:5320   */\n      dup1\n        /* \"#utility.yul\":5306:5308   */\n      0x40\n        /* \"#utility.yul\":5299:5321   */\n      mstore\n        /* \"#utility.yul\":5089:5327   */\n      pop\n        /* \"#utility.yul\":5046:5327   */\n      pop\n      pop\n      jump\t// out\n        /* \"#utility.yul\":5333:5462   */\n    tag_69:\n        /* \"#utility.yul\":5367:5373   */\n      0x00\n        /* \"#utility.yul\":5394:5414   */\n      tag_149\n      tag_53\n      jump\t// in\n    tag_149:\n        /* \"#utility.yul\":5384:5414   */\n      swap1\n      pop\n        /* \"#utility.yul\":5423:5456   */\n      tag_150\n        /* \"#utility.yul\":5451:5455   */\n      dup3\n        /* \"#utility.yul\":5443:5449   */\n      dup3\n        /* \"#utility.yul\":5423:5456   */\n      tag_68\n      jump\t// in\n    tag_150:\n        /* \"#utility.yul\":5333:5462   */\n      swap2\n      swap1\n      pop\n      jump\t// out\n        /* \"#utility.yul\":5468:5776   */\n    tag_70:\n        /* \"#utility.yul\":5530:5534   */\n      0x00\n        /* \"#utility.yul\":5620:5638   */\n      0xffffffffffffffff\n        /* \"#utility.yul\":5612:5618   */\n      dup3\n        /* \"#utility.yul\":5609:5639   */\n      gt\n        /* \"#utility.yul\":5606:5662   */\n      iszero\n      tag_152\n      jumpi\n        /* \"#utility.yul\":5642:5660   */\n      tag_153\n      tag_67\n      jump\t// in\n    tag_153:\n        /* \"#utility.yul\":5606:5662   */\n    tag_152:\n        /* \"#utility.yul\":5680:5709   */\n      tag_154\n        /* \"#utility.yul\":5702:5708   */\n      dup3\n        /* \"#utility.yul\":5680:5709   */\n      tag_63\n      jump\t// in\n    tag_154:\n        /* \"#utility.yul\":5672:5709   */\n      swap1\n      pop\n        /* \"#utility.yul\":5764:5768   */\n      0x20\n        /* \"#utility.yul\":5758:5762   */\n      dup2\n        /* \"#utility.yul\":5754:5769   */\n      add\n        /* \"#utility.yul\":5746:5769   */\n      swap1\n      pop\n        /* \"#utility.yul\":5468:5776   */\n      swap2\n      swap1\n      pop\n      jump\t// out\n        /* \"#utility.yul\":5782:5928   */\n    tag_71:\n        /* \"#utility.yul\":5879:5885   */\n      dup3\n        /* \"#utility.yul\":5874:5877   */\n      dup2\n        /* \"#utility.yul\":5869:5872   */\n      dup4\n        /* \"#utility.yul\":5856:5886   */\n      calldatacopy\n        /* \"#utility.yul\":5920:5921   */\n      0x00\n        /* \"#utility.yul\":5911:5917   */\n      dup4\n        /* \"#utility.yul\":5906:5909   */\n      dup4\n        /* \"#utility.yul\":5902:5918   */\n      add\n        /* \"#utility.yul\":5895:5922   */\n      mstore\n        /* \"#utility.yul\":5782:5928   */\n      pop\n      pop\n      pop\n      jump\t// out\n        /* \"#utility.yul\":5934:6359   */\n    tag_72:\n        /* \"#utility.yul\":6012:6017   */\n      0x00\n        /* \"#utility.yul\":6037:6103   */\n      tag_157\n        /* \"#utility.yul\":6053:6102   */\n      tag_158\n        /* \"#utility.yul\":6095:6101   */\n      dup5\n        /* \"#utility.yul\":6053:6102   */\n      tag_70\n      jump\t// in\n    tag_158:\n        /* \"#utility.yul\":6037:6103   */\n      tag_69\n      jump\t// in\n    tag_157:\n        /* \"#utility.yul\":6028:6103   */\n      swap1\n      pop\n        /* \"#utility.yul\":6126:6132   */\n      dup3\n        /* \"#utility.yul\":6119:6124   */\n      dup2\n        /* \"#utility.yul\":6112:6133   */\n      mstore\n        /* \"#utility.yul\":6164:6168   */\n      0x20\n        /* \"#utility.yul\":6157:6162   */\n      dup2\n        /* \"#utility.yul\":6153:6169   */\n      add\n        /* \"#utility.yul\":6202:6205   */\n      dup5\n        /* \"#utility.yul\":6193:6199   */\n      dup5\n        /* \"#utility.yul\":6188:6191   */\n      dup5\n        /* \"#utility.yul\":6184:6200   */\n      add\n        /* \"#utility.yul\":6181:6206   */\n      gt\n        /* \"#utility.yul\":6178:6290   */\n      iszero\n      tag_159\n      jumpi\n        /* \"#utility.yul\":6209:6288   */\n      tag_160\n      tag_66\n      jump\t// in\n    tag_160:\n        /* \"#utility.yul\":6178:6290   */\n    tag_159:\n        /* \"#utility.yul\":6299:6353   */\n      tag_161\n        /* \"#utility.yul\":6346:6352   */\n      dup5\n        /* \"#utility.yul\":6341:6344   */\n      dup3\n        /* \"#utility.yul\":6336:6339   */\n      dup6\n        /* \"#utility.yul\":6299:6353   */\n      tag_71\n      jump\t// in\n    tag_161:\n        /* \"#utility.yul\":6018:6359   */\n      pop\n        /* \"#utility.yul\":5934:6359   */\n      swap4\n      swap3\n      pop\n      pop\n      pop\n      jump\t// out\n        /* \"#utility.yul\":6379:6719   */\n    tag_73:\n        /* \"#utility.yul\":6435:6440   */\n      0x00\n        /* \"#utility.yul\":6484:6487   */\n      dup3\n        /* \"#utility.yul\":6477:6481   */\n      0x1f\n        /* \"#utility.yul\":6469:6475   */\n      dup4\n        /* \"#utility.yul\":6465:6482   */\n      add\n        /* \"#utility.yul\":6461:6488   */\n      slt\n        /* \"#utility.yul\":6451:6573   */\n      tag_163\n      jumpi\n        /* \"#utility.yul\":6492:6571   */\n      tag_164\n      tag_65\n      jump\t// in\n    tag_164:\n        /* \"#utility.yul\":6451:6573   */\n    tag_163:\n        /* \"#utility.yul\":6609:6615   */\n      dup2\n        /* \"#utility.yul\":6596:6616   */\n      calldataload\n        /* \"#utility.yul\":6634:6713   */\n      tag_165\n        /* \"#utility.yul\":6709:6712   */\n      dup5\n        /* \"#utility.yul\":6701:6707   */\n      dup3\n        /* \"#utility.yul\":6694:6698   */\n      0x20\n        /* \"#utility.yul\":6686:6692   */\n      dup7\n        /* \"#utility.yul\":6682:6699   */\n      add\n        /* \"#utility.yul\":6634:6713   */\n      tag_72\n      jump\t// in\n    tag_165:\n        /* \"#utility.yul\":6625:6713   */\n      swap2\n      pop\n        /* \"#utility.yul\":6441:6719   */\n      pop\n        /* \"#utility.yul\":6379:6719   */\n      swap3\n      swap2\n      pop\n      pop\n      jump\t// out\n        /* \"#utility.yul\":6725:7379   */\n    tag_19:\n        /* \"#utility.yul\":6803:6809   */\n      0x00\n        /* \"#utility.yul\":6811:6817   */\n      dup1\n        /* \"#utility.yul\":6860:6862   */\n      0x40\n        /* \"#utility.yul\":6848:6857   */\n      dup4\n        /* \"#utility.yul\":6839:6846   */\n      dup6\n        /* \"#utility.yul\":6835:6858   */\n      sub\n        /* \"#utility.yul\":6831:6863   */\n      slt\n        /* \"#utility.yul\":6828:6947   */\n      iszero\n      tag_167\n      jumpi\n        /* \"#utility.yul\":6866:6945   */\n      tag_168\n      tag_54\n      jump\t// in\n    tag_168:\n        /* \"#utility.yul\":6828:6947   */\n    tag_167:\n        /* \"#utility.yul\":6986:6987   */\n      0x00\n        /* \"#utility.yul\":7011:7064   */\n      tag_169\n        /* \"#utility.yul\":7056:7063   */\n      dup6\n        /* \"#utility.yul\":7047:7053   */\n      dup3\n        /* \"#utility.yul\":7036:7045   */\n      dup7\n        /* \"#utility.yul\":7032:7054   */\n      add\n        /* \"#utility.yul\":7011:7064   */\n      tag_59\n      jump\t// in\n    tag_169:\n        /* \"#utility.yul\":7001:7064   */\n      swap3\n      pop\n        /* \"#utility.yul\":6957:7074   */\n      pop\n        /* \"#utility.yul\":7141:7143   */\n      0x20\n        /* \"#utility.yul\":7130:7139   */\n      dup4\n        /* \"#utility.yul\":7126:7144   */\n      add\n        /* \"#utility.yul\":7113:7145   */\n      calldataload\n        /* \"#utility.yul\":7172:7190   */\n      0xffffffffffffffff\n        /* \"#utility.yul\":7164:7170   */\n      dup2\n        /* \"#utility.yul\":7161:7191   */\n      gt\n        /* \"#utility.yul\":7158:7275   */\n      iszero\n      tag_170\n      jumpi\n        /* \"#utility.yul\":7194:7273   */\n      tag_171\n      tag_55\n      jump\t// in\n    tag_171:\n        /* \"#utility.yul\":7158:7275   */\n    tag_170:\n        /* \"#utility.yul\":7299:7362   */\n      tag_172\n        /* \"#utility.yul\":7354:7361   */\n      dup6\n        /* \"#utility.yul\":7345:7351   */\n      dup3\n        /* \"#utility.yul\":7334:7343   */\n      dup7\n        /* \"#utility.yul\":7330:7352   */\n      add\n        /* \"#utility.yul\":7299:7362   */\n      tag_73\n      jump\t// in\n    tag_172:\n        /* \"#utility.yul\":7289:7362   */\n      swap2\n      pop\n        /* \"#utility.yul\":7084:7372   */\n      pop\n        /* \"#utility.yul\":6725:7379   */\n      swap3\n      pop\n      swap3\n      swap1\n      pop\n      jump\t// out\n        /* \"#utility.yul\":7385:7894   */\n    tag_23:\n        /* \"#utility.yul\":7454:7460   */\n      0x00\n        /* \"#utility.yul\":7503:7505   */\n      0x20\n        /* \"#utility.yul\":7491:7500   */\n      dup3\n        /* \"#utility.yul\":7482:7489   */\n      dup5\n        /* \"#utility.yul\":7478:7501   */\n      sub\n        /* \"#utility.yul\":7474:7506   */\n      slt\n        /* \"#utility.yul\":7471:7590   */\n      iszero\n      tag_174\n      jumpi\n        /* \"#utility.yul\":7509:7588   */\n      tag_175\n      tag_54\n      jump\t// in\n    tag_175:\n        /* \"#utility.yul\":7471:7590   */\n    tag_174:\n        /* \"#utility.yul\":7657:7658   */\n      0x00\n        /* \"#utility.yul\":7646:7655   */\n      dup3\n        /* \"#utility.yul\":7642:7659   */\n      add\n        /* \"#utility.yul\":7629:7660   */\n      calldataload\n        /* \"#utility.yul\":7687:7705   */\n      0xffffffffffffffff\n        /* \"#utility.yul\":7679:7685   */\n      dup2\n        /* \"#utility.yul\":7676:7706   */\n      gt\n        /* \"#utility.yul\":7673:7790   */\n      iszero\n      tag_176\n      jumpi\n        /* \"#utility.yul\":7709:7788   */\n      tag_177\n      tag_55\n      jump\t// in\n    tag_177:\n        /* \"#utility.yul\":7673:7790   */\n    tag_176:\n        /* \"#utility.yul\":7814:7877   */\n      tag_178\n        /* \"#utility.yul\":7869:7876   */\n      dup5\n        /* \"#utility.yul\":7860:7866   */\n      dup3\n        /* \"#utility.yul\":7849:7858   */\n      dup6\n        /* \"#utility.yul\":7845:7867   */\n      add\n        /* \"#utility.yul\":7814:7877   */\n      tag_73\n      jump\t// in\n    tag_178:\n        /* \"#utility.yul\":7804:7877   */\n      swap2\n      pop\n        /* \"#utility.yul\":7600:7887   */\n      pop\n        /* \"#utility.yul\":7385:7894   */\n      swap3\n      swap2\n      pop\n      pop\n      jump\t// out\n        /* \"#utility.yul\":7900:8080   */\n    tag_74:\n        /* \"#utility.yul\":7948:8025   */\n      0x4e487b7100000000000000000000000000000000000000000000000000000000\n        /* \"#utility.yul\":7945:7946   */\n      0x00\n        /* \"#utility.yul\":7938:8026   */\n      mstore\n        /* \"#utility.yul\":8045:8049   */\n      0x22\n        /* \"#utility.yul\":8042:8043   */\n      0x04\n        /* \"#utility.yul\":8035:8050   */\n      mstore\n        /* \"#utility.yul\":8069:8073   */\n      0x24\n        /* \"#utility.yul\":8066:8067   */\n      0x00\n        /* \"#utility.yul\":8059:8074   */\n      revert\n        /* \"#utility.yul\":8086:8406   */\n    tag_30:\n        /* \"#utility.yul\":8130:8136   */\n      0x00\n        /* \"#utility.yul\":8167:8168   */\n      0x02\n        /* \"#utility.yul\":8161:8165   */\n      dup3\n        /* \"#utility.yul\":8157:8169   */\n      div\n        /* \"#utility.yul\":8147:8169   */\n      swap1\n      pop\n        /* \"#utility.yul\":8214:8215   */\n      0x01\n        /* \"#utility.yul\":8208:8212   */\n      dup3\n        /* \"#utility.yul\":8204:8216   */\n      and\n        /* \"#utility.yul\":8235:8253   */\n      dup1\n        /* \"#utility.yul\":8225:8306   */\n      tag_181\n      jumpi\n        /* \"#utility.yul\":8291:8295   */\n      0x7f\n        /* \"#utility.yul\":8283:8289   */\n      dup3\n        /* \"#utility.yul\":8279:8296   */\n      and\n        /* \"#utility.yul\":8269:8296   */\n      swap2\n      pop\n        /* \"#utility.yul\":8225:8306   */\n    tag_181:\n        /* \"#utility.yul\":8353:8355   */\n      0x20\n        /* \"#utility.yul\":8345:8351   */\n      dup3\n        /* \"#utility.yul\":8342:8356   */\n      lt\n        /* \"#utility.yul\":8322:8340   */\n      dup2\n        /* \"#utility.yul\":8319:8357   */\n      sub\n        /* \"#utility.yul\":8316:8400   */\n      tag_182\n      jumpi\n        /* \"#utility.yul\":8372:8390   */\n      tag_183\n      tag_74\n      jump\t// in\n    tag_183:\n        /* \"#utility.yul\":8316:8400   */\n    tag_182:\n        /* \"#utility.yul\":8137:8406   */\n      pop\n        /* \"#utility.yul\":8086:8406   */\n      swap2\n      swap1\n      pop\n      jump\t// out\n        /* \"#utility.yul\":8412:8553   */\n    tag_75:\n        /* \"#utility.yul\":8461:8465   */\n      0x00\n        /* \"#utility.yul\":8484:8487   */\n      dup2\n        /* \"#utility.yul\":8476:8487   */\n      swap1\n      pop\n        /* \"#utility.yul\":8507:8510   */\n      dup2\n        /* \"#utility.yul\":8504:8505   */\n      0x00\n        /* \"#utility.yul\":8497:8511   */\n      mstore\n        /* \"#utility.yul\":8541:8545   */\n      0x20\n        /* \"#utility.yul\":8538:8539   */\n      0x00\n        /* \"#utility.yul\":8528:8546   */\n      keccak256\n        /* \"#utility.yul\":8520:8546   */\n      swap1\n      pop\n        /* \"#utility.yul\":8412:8553   */\n      swap2\n      swap1\n      pop\n      jump\t// out\n        /* \"#utility.yul\":8559:8652   */\n    tag_76:\n        /* \"#utility.yul\":8596:8602   */\n      0x00\n        /* \"#utility.yul\":8643:8645   */\n      0x20\n        /* \"#utility.yul\":8638:8640   */\n      0x1f\n        /* \"#utility.yul\":8631:8636   */\n      dup4\n        /* \"#utility.yul\":8627:8641   */\n      add\n        /* \"#utility.yul\":8623:8646   */\n      div\n        /* \"#utility.yul\":8613:8646   */\n      swap1\n      pop\n        /* \"#utility.yul\":8559:8652   */\n      swap2\n      swap1\n      pop\n      jump\t// out\n        /* \"#utility.yul\":8658:8765   */\n    tag_77:\n        /* \"#utility.yul\":8702:8710   */\n      0x00\n        /* \"#utility.yul\":8752:8757   */\n      dup3\n        /* \"#utility.yul\":8746:8750   */\n      dup3\n        /* \"#utility.yul\":8742:8758   */\n      shl\n        /* \"#utility.yul\":8721:8758   */\n      swap1\n      pop\n        /* \"#utility.yul\":8658:8765   */\n      swap3\n      swap2\n      pop\n      pop\n      jump\t// out\n        /* \"#utility.yul\":8771:9164   */\n    tag_78:\n        /* \"#utility.yul\":8840:8846   */\n      0x00\n        /* \"#utility.yul\":8890:8891   */\n      0x08\n        /* \"#utility.yul\":8878:8888   */\n      dup4\n        /* \"#utility.yul\":8874:8892   */\n      mul\n        /* \"#utility.yul\":8913:9010   */\n      tag_188\n        /* \"#utility.yul\":8943:9009   */\n      0xffffffffffffffffffffffffffffffffffffffffffffffffffffffffffffffff\n        /* \"#utility.yul\":8932:8941   */\n      dup3\n        /* \"#utility.yul\":8913:9010   */\n      tag_77\n      jump\t// in\n    tag_188:\n        /* \"#utility.yul\":9031:9070   */\n      tag_189\n        /* \"#utility.yul\":9061:9069   */\n      dup7\n        /* \"#utility.yul\":9050:9059   */\n      dup4\n        /* \"#utility.yul\":9031:9070   */\n      tag_77\n      jump\t// in\n    tag_189:\n        /* \"#utility.yul\":9019:9070   */\n      swap6\n      pop\n        /* \"#utility.yul\":9103:9107   */\n      dup1\n        /* \"#utility.yul\":9099:9108   */\n      not\n        /* \"#utility.yul\":9092:9097   */\n      dup5\n        /* \"#utility.yul\":9088:9109   */\n      and\n        /* \"#utility.yul\":9079:9109   */\n      swap4\n      pop\n        /* \"#utility.yul\":9152:9156   */\n      dup1\n        /* \"#utility.yul\":9142:9150   */\n      dup7\n        /* \"#utility.yul\":9138:9157   */\n      and\n        /* \"#utility.yul\":9131:9136   */\n      dup5\n        /* \"#utility.yul\":9128:9158   */\n      or\n        /* \"#utility.yul\":9118:9158   */\n      swap3\n      pop\n        /* \"#utility.yul\":8847:9164   */\n      pop\n      pop\n        /* \"#utility.yul\":8771:9164   */\n      swap4\n      swap3\n      pop\n      pop\n      pop\n      jump\t// out\n        /* \"#utility.yul\":9170:9230   */\n    tag_79:\n        /* \"#utility.yul\":9198:9201   */\n      0x00\n        /* \"#utility.yul\":9219:9224   */\n      dup2\n        /* \"#utility.yul\":9212:9224   */\n      swap1\n      pop\n        /* \"#utility.yul\":9170:9230   */\n      swap2\n      swap1\n      pop\n      jump\t// out\n        /* \"#utility.yul\":9236:9378   */\n    tag_80:\n        /* \"#utility.yul\":9286:9295   */\n      0x00\n        /* \"#utility.yul\":9319:9372   */\n      tag_192\n        /* \"#utility.yul\":9337:9371   */\n      tag_193\n        /* \"#utility.yul\":9346:9370   */\n      tag_194\n        /* \"#utility.yul\":9364:9369   */\n      dup5\n        /* \"#utility.yul\":9346:9370   */\n      tag_48\n      jump\t// in\n    tag_194:\n        /* \"#utility.yul\":9337:9371   */\n      tag_79\n      jump\t// in\n    tag_193:\n        /* \"#utility.yul\":9319:9372   */\n      tag_48\n      jump\t// in\n    tag_192:\n        /* \"#utility.yul\":9306:9372   */\n      swap1\n      pop\n        /* \"#utility.yul\":9236:9378   */\n      swap2\n      swap1\n      pop\n      jump\t// out\n        /* \"#utility.yul\":9384:9459   */\n    tag_81:\n        /* \"#utility.yul\":9427:9430   */\n      0x00\n        /* \"#utility.yul\":9448:9453   */\n      dup2\n        /* \"#utility.yul\":9441:9453   */\n      swap1\n      pop\n        /* \"#utility.yul\":9384:9459   */\n      swap2\n      swap1\n      pop\n      jump\t// out\n        /* \"#utility.yul\":9465:9734   */\n    tag_82:\n        /* \"#utility.yul\":9575:9614   */\n      tag_197\n        /* \"#utility.yul\":9606:9613   */\n      dup4\n        /* \"#utility.yul\":9575:9614   */\n      tag_80\n      jump\t// in\n    tag_197:\n        /* \"#utility.yul\":9636:9727   */\n      tag_198\n        /* \"#utility.yul\":9685:9726   */\n      tag_199\n        /* \"#utility.yul\":9709:9725   */\n      dup3\n        /* \"#utility.yul\":9685:9726   */\n      tag_81\n      jump\t// in\n    tag_199:\n        /* \"#utility.yul\":9677:9683   */\n      dup5\n        /* \"#utility.yul\":9670:9674   */\n      dup5\n        /* \"#utility.yul\":9664:9675   */\n      sload\n        /* \"#utility.yul\":9636:9727   */\n      tag_78\n      jump\t// in\n    tag_198:\n        /* \"#utility.yul\":9630:9634   */\n      dup3\n        /* \"#utility.yul\":9623:9728   */\n      sstore\n        /* \"#utility.yul\":9541:9734   */\n      pop\n        /* \"#utility.yul\":9465:9734   */\n      pop\n      pop\n      pop\n      jump\t// out\n        /* \"#utility.yul\":9740:9813   */\n    tag_83:\n        /* \"#utility.yul\":9785:9788   */\n      0x00\n        /* \"#utility.yul\":9740:9813   */\n      swap1\n      jump\t// out\n        /* \"#utility.yul\":9819:10008   */\n    tag_84:\n        /* \"#utility.yul\":9896:9928   */\n      tag_202\n      tag_83\n      jump\t// in\n    tag_202:\n        /* \"#utility.yul\":9937:10002   */\n      tag_203\n        /* \"#utility.yul\":9995:10001   */\n      dup2\n        /* \"#utility.yul\":9987:9993   */\n      dup5\n        /* \"#utility.yul\":9981:9985   */\n      dup5\n        /* \"#utility.yul\":9937:10002   */\n      tag_82\n      jump\t// in\n    tag_203:\n        /* \"#utility.yul\":9872:10008   */\n      pop\n        /* \"#utility.yul\":9819:10008   */\n      pop\n      pop\n      jump\t// out\n        /* \"#utility.yul\":10014:10200   */\n    tag_85:\n        /* \"#utility.yul\":10074:10194   */\n    tag_205:\n        /* \"#utility.yul\":10091:10094   */\n      dup2\n        /* \"#utility.yul\":10084:10089   */\n      dup2\n        /* \"#utility.yul\":10081:10095   */\n      lt\n        /* \"#utility.yul\":10074:10194   */\n      iszero\n      tag_207\n      jumpi\n        /* \"#utility.yul\":10145:10184   */\n      tag_208\n        /* \"#utility.yul\":10182:10183   */\n      0x00\n        /* \"#utility.yul\":10175:10180   */\n      dup3\n        /* \"#utility.yul\":10145:10184   */\n      tag_84\n      jump\t// in\n    tag_208:\n        /* \"#utility.yul\":10118:10119   */\n      0x01\n        /* \"#utility.yul\":10111:10116   */\n      dup2\n        /* \"#utility.yul\":10107:10120   */\n      add\n        /* \"#utility.yul\":10098:10120   */\n      swap1\n      pop\n        /* \"#utility.yul\":10074:10194   */\n      jump(tag_205)\n    tag_207:\n        /* \"#utility.yul\":10014:10200   */\n      pop\n      pop\n      jump\t// out\n        /* \"#utility.yul\":10206:10749   */\n    tag_86:\n        /* \"#utility.yul\":10307:10309   */\n      0x1f\n        /* \"#utility.yul\":10302:10305   */\n      dup3\n        /* \"#utility.yul\":10299:10310   */\n      gt\n        /* \"#utility.yul\":10296:10742   */\n      iszero\n      tag_210\n      jumpi\n        /* \"#utility.yul\":10341:10379   */\n      tag_211\n        /* \"#utility.yul\":10373:10378   */\n      dup2\n        /* \"#utility.yul\":10341:10379   */\n      tag_75\n      jump\t// in\n    tag_211:\n        /* \"#utility.yul\":10425:10454   */\n      tag_212\n        /* \"#utility.yul\":10443:10453   */\n      dup5\n        /* \"#utility.yul\":10425:10454   */\n      tag_76\n      jump\t// in\n    tag_212:\n        /* \"#utility.yul\":10415:10423   */\n      dup2\n        /* \"#utility.yul\":10411:10455   */\n      add\n        /* \"#utility.yul\":10608:10610   */\n      0x20\n        /* \"#utility.yul\":10596:10606   */\n      dup6\n        /* \"#utility.yul\":10593:10611   */\n      lt\n        /* \"#utility.yul\":10590:10639   */\n      iszero\n      tag_213\n      jumpi\n        /* \"#utility.yul\":10629:10637   */\n      dup2\n        /* \"#utility.yul\":10614:10637   */\n      swap1\n      pop\n        /* \"#utility.yul\":10590:10639   */\n    tag_213:\n        /* \"#utility.yul\":10652:10732   */\n      tag_214\n        /* \"#utility.yul\":10708:10730   */\n      tag_215\n        /* \"#utility.yul\":10726:10729   */\n      dup6\n        /* \"#utility.yul\":10708:10730   */\n      tag_76\n      jump\t// in\n    tag_215:\n        /* \"#utility.yul\":10698:10706   */\n      dup4\n        /* \"#utility.yul\":10694:10731   */\n      add\n        /* \"#utility.yul\":10681:10692   */\n      dup3\n        /* \"#utility.yul\":10652:10732   */\n      tag_85\n      jump\t// in\n    tag_214:\n        /* \"#utility.yul\":10311:10742   */\n      pop\n      pop\n        /* \"#utility.yul\":10296:10742   */\n    tag_210:\n        /* \"#utility.yul\":10206:10749   */\n      pop\n      pop\n      pop\n      jump\t// out\n        /* \"#utility.yul\":10755:10872   */\n    tag_87:\n        /* \"#utility.yul\":10809:10817   */\n      0x00\n        /* \"#utility.yul\":10859:10864   */\n      dup3\n        /* \"#utility.yul\":10853:10857   */\n      dup3\n        /* \"#utility.yul\":10849:10865   */\n      shr\n        /* \"#utility.yul\":10828:10865   */\n      swap1\n      pop\n        /* \"#utility.yul\":10755:10872   */\n      swap3\n      swap2\n      pop\n      pop\n      jump\t// out\n        /* \"#utility.yul\":10878:11047   */\n    tag_88:\n        /* \"#utility.yul\":10922:10928   */\n      0x00\n        /* \"#utility.yul\":10955:11006   */\n      tag_218\n        /* \"#utility.yul\":11003:11004   */\n      0x00\n        /* \"#utility.yul\":10999:11005   */\n      not\n        /* \"#utility.yul\":10991:10996   */\n      dup5\n        /* \"#utility.yul\":10988:10989   */\n      0x08\n        /* \"#utility.yul\":10984:10997   */\n      mul\n        /* \"#utility.yul\":10955:11006   */\n      tag_87\n      jump\t// in\n    tag_218:\n        /* \"#utility.yul\":10951:11007   */\n      not\n        /* \"#utility.yul\":11036:11040   */\n      dup1\n        /* \"#utility.yul\":11030:11034   */\n      dup4\n        /* \"#utility.yul\":11026:11041   */\n      and\n        /* \"#utility.yul\":11016:11041   */\n      swap2\n      pop\n        /* \"#utility.yul\":10929:11047   */\n      pop\n        /* \"#utility.yul\":10878:11047   */\n      swap3\n      swap2\n      pop\n      pop\n      jump\t// out\n        /* \"#utility.yul\":11052:11347   */\n    tag_89:\n        /* \"#utility.yul\":11128:11132   */\n      0x00\n        /* \"#utility.yul\":11274:11303   */\n      tag_220\n        /* \"#utility.yul\":11299:11302   */\n      dup4\n        /* \"#utility.yul\":11293:11297   */\n      dup4\n        /* \"#utility.yul\":11274:11303   */\n      tag_88\n      jump\t// in\n    tag_220:\n        /* \"#utility.yul\":11266:11303   */\n      swap2\n      pop\n        /* \"#utility.yul\":11336:11339   */\n      dup3\n        /* \"#utility.yul\":11333:11334   */\n      0x02\n        /* \"#utility.yul\":11329:11340   */\n      mul\n        /* \"#utility.yul\":11323:11327   */\n      dup3\n        /* \"#utility.yul\":11320:11341   */\n      or\n        /* \"#utility.yul\":11312:11341   */\n      swap1\n      pop\n        /* \"#utility.yul\":11052:11347   */\n      swap3\n      swap2\n      pop\n      pop\n      jump\t// out\n        /* \"#utility.yul\":11352:12747   */\n    tag_37:\n        /* \"#utility.yul\":11469:11506   */\n      tag_222\n        /* \"#utility.yul\":11502:11505   */\n      dup3\n        /* \"#utility.yul\":11469:11506   */\n      tag_60\n      jump\t// in\n    tag_222:\n        /* \"#utility.yul\":11571:11589   */\n      0xffffffffffffffff\n        /* \"#utility.yul\":11563:11569   */\n      dup2\n        /* \"#utility.yul\":11560:11590   */\n      gt\n        /* \"#utility.yul\":11557:11613   */\n      iszero\n      tag_223\n      jumpi\n        /* \"#utility.yul\":11593:11611   */\n      tag_224\n      tag_67\n      jump\t// in\n    tag_224:\n        /* \"#utility.yul\":11557:11613   */\n    tag_223:\n        /* \"#utility.yul\":11637:11675   */\n      tag_225\n        /* \"#utility.yul\":11669:11673   */\n      dup3\n        /* \"#utility.yul\":11663:11674   */\n      sload\n        /* \"#utility.yul\":11637:11675   */\n      tag_30\n      jump\t// in\n    tag_225:\n        /* \"#utility.yul\":11722:11789   */\n      tag_226\n        /* \"#utility.yul\":11782:11788   */\n      dup3\n        /* \"#utility.yul\":11774:11780   */\n      dup3\n        /* \"#utility.yul\":11768:11772   */\n      dup6\n        /* \"#utility.yul\":11722:11789   */\n      tag_86\n      jump\t// in\n    tag_226:\n        /* \"#utility.yul\":11816:11817   */\n      0x00\n        /* \"#utility.yul\":11840:11844   */\n      0x20\n        /* \"#utility.yul\":11827:11844   */\n      swap1\n      pop\n        /* \"#utility.yul\":11872:11874   */\n      0x1f\n        /* \"#utility.yul\":11864:11870   */\n      dup4\n        /* \"#utility.yul\":11861:11875   */\n      gt\n        /* \"#utility.yul\":11889:11890   */\n      0x01\n        /* \"#utility.yul\":11884:12502   */\n      dup2\n      eq\n      tag_228\n      jumpi\n        /* \"#utility.yul\":12546:12547   */\n      0x00\n        /* \"#utility.yul\":12563:12569   */\n      dup5\n        /* \"#utility.yul\":12560:12637   */\n      iszero\n      tag_229\n      jumpi\n        /* \"#utility.yul\":12612:12621   */\n      dup3\n        /* \"#utility.yul\":12607:12610   */\n      dup8\n        /* \"#utility.yul\":12603:12622   */\n      add\n        /* \"#utility.yul\":12597:12623   */\n      mload\n        /* \"#utility.yul\":12588:12623   */\n      swap1\n      pop\n        /* \"#utility.yul\":12560:12637   */\n    tag_229:\n        /* \"#utility.yul\":12663:12730   */\n      tag_230\n        /* \"#utility.yul\":12723:12729   */\n      dup6\n        /* \"#utility.yul\":12716:12721   */\n      dup3\n        /* \"#utility.yul\":12663:12730   */\n      tag_89\n      jump\t// in\n    tag_230:\n        /* \"#utility.yul\":12657:12661   */\n      dup7\n        /* \"#utility.yul\":12650:12731   */\n      sstore\n        /* \"#utility.yul\":12519:12741   */\n      pop\n        /* \"#utility.yul\":11854:12741   */\n      jump(tag_227)\n        /* \"#utility.yul\":11884:12502   */\n    tag_228:\n        /* \"#utility.yul\":11936:11940   */\n      0x1f\n        /* \"#utility.yul\":11932:11941   */\n      not\n        /* \"#utility.yul\":11924:11930   */\n      dup5\n        /* \"#utility.yul\":11920:11942   */\n      and\n        /* \"#utility.yul\":11970:12007   */\n      tag_231\n        /* \"#utility.yul\":12002:12006   */\n      dup7\n        /* \"#utility.yul\":11970:12007   */\n      tag_75\n      jump\t// in\n    tag_231:\n        /* \"#utility.yul\":12029:12030   */\n      0x00\n        /* \"#utility.yul\":12043:12251   */\n    tag_232:\n        /* \"#utility.yul\":12057:12064   */\n      dup3\n        /* \"#utility.yul\":12054:12055   */\n      dup2\n        /* \"#utility.yul\":12051:12065   */\n      lt\n        /* \"#utility.yul\":12043:12251   */\n      iszero\n      tag_234\n      jumpi\n        /* \"#utility.yul\":12136:12145   */\n      dup5\n        /* \"#utility.yul\":12131:12134   */\n      dup10\n        /* \"#utility.yul\":12127:12146   */\n      add\n        /* \"#utility.yul\":12121:12147   */\n      mload\n        /* \"#utility.yul\":12113:12119   */\n      dup3\n        /* \"#utility.yul\":12106:12148   */\n      sstore\n        /* \"#utility.yul\":12187:12188   */\n      0x01\n        /* \"#utility.yul\":12179:12185   */\n      dup3\n        /* \"#utility.yul\":12175:12189   */\n      add\n        /* \"#utility.yul\":12165:12189   */\n      swap2\n      pop\n        /* \"#utility.yul\":12234:12236   */\n      0x20\n        /* \"#utility.yul\":12223:12232   */\n      dup6\n        /* \"#utility.yul\":12219:12237   */\n      add\n        /* \"#utility.yul\":12206:12237   */\n      swap5\n      pop\n        /* \"#utility.yul\":12080:12084   */\n      0x20\n        /* \"#utility.yul\":12077:12078   */\n      dup2\n        /* \"#utility.yul\":12073:12085   */\n      add\n        /* \"#utility.yul\":12068:12085   */\n      swap1\n      pop\n        /* \"#utility.yul\":12043:12251   */\n      jump(tag_232)\n    tag_234:\n        /* \"#utility.yul\":12279:12285   */\n      dup7\n        /* \"#utility.yul\":12270:12277   */\n      dup4\n        /* \"#utility.yul\":12267:12286   */\n      lt\n        /* \"#utility.yul\":12264:12443   */\n      iszero\n      tag_235\n      jumpi\n        /* \"#utility.yul\":12337:12346   */\n      dup5\n        /* \"#utility.yul\":12332:12335   */\n      dup10\n        /* \"#utility.yul\":12328:12347   */\n      add\n        /* \"#utility.yul\":12322:12348   */\n      mload\n        /* \"#utility.yul\":12380:12428   */\n      tag_236\n        /* \"#utility.yul\":12422:12426   */\n      0x1f\n        /* \"#utility.yul\":12414:12420   */\n      dup10\n        /* \"#utility.yul\":12410:12427   */\n      and\n        /* \"#utility.yul\":12399:12408   */\n      dup3\n        /* \"#utility.yul\":12380:12428   */\n      tag_88\n      jump\t// in\n    tag_236:\n        /* \"#utility.yul\":12372:12378   */\n      dup4\n        /* \"#utility.yul\":12365:12429   */\n      sstore\n        /* \"#utility.yul\":12287:12443   */\n      pop\n        /* \"#utility.yul\":12264:12443   */\n    tag_235:\n        /* \"#utility.yul\":12489:12490   */\n      0x01\n        /* \"#utility.yul\":12485:12486   */\n      0x02\n        /* \"#utility.yul\":12477:12483   */\n      dup9\n        /* \"#utility.yul\":12473:12487   */\n      mul\n        /* \"#utility.yul\":12469:12491   */\n      add\n        /* \"#utility.yul\":12463:12467   */\n      dup9\n        /* \"#utility.yul\":12456:12492   */\n      sstore\n        /* \"#utility.yul\":11891:12502   */\n      pop\n      pop\n      pop\n        /* \"#utility.yul\":11854:12741   */\n    tag_227:\n      pop\n        /* \"#utility.yul\":11444:12747   */\n      pop\n      pop\n      pop\n        /* \"#utility.yul\":11352:12747   */\n      pop\n      pop\n      jump\t// out\n        /* \"#utility.yul\":12753:12933   */\n    tag_90:\n        /* \"#utility.yul\":12801:12878   */\n      0x4e487b7100000000000000000000000000000000000000000000000000000000\n        /* \"#utility.yul\":12798:12799   */\n      0x00\n        /* \"#utility.yul\":12791:12879   */\n      mstore\n        /* \"#utility.yul\":12898:12902   */\n      0x11\n        /* \"#utility.yul\":12895:12896   */\n      0x04\n        /* \"#utility.yul\":12888:12903   */\n      mstore\n        /* \"#utility.yul\":12922:12926   */\n      0x24\n        /* \"#utility.yul\":12919:12920   */\n      0x00\n        /* \"#utility.yul\":12912:12927   */\n      revert\n        /* \"#utility.yul\":12939:13172   */\n    tag_42:\n        /* \"#utility.yul\":12978:12981   */\n      0x00\n        /* \"#utility.yul\":13001:13025   */\n      tag_239\n        /* \"#utility.yul\":13019:13024   */\n      dup3\n        /* \"#utility.yul\":13001:13025   */\n      tag_48\n      jump\t// in\n    tag_239:\n        /* \"#utility.yul\":12992:13025   */\n      swap2\n      pop\n        /* \"#utility.yul\":13047:13113   */\n      0xffffffffffffffffffffffffffffffffffffffffffffffffffffffffffffffff\n        /* \"#utility.yul\":13040:13045   */\n      dup3\n        /* \"#utility.yul\":13037:13114   */\n      sub\n        /* \"#utility.yul\":13034:13137   */\n      tag_240\n      jumpi\n        /* \"#utility.yul\":13117:13135   */\n      tag_241\n      tag_90\n      jump\t// in\n    tag_241:\n        /* \"#utility.yul\":13034:13137   */\n    tag_240:\n        /* \"#utility.yul\":13164:13165   */\n      0x01\n        /* \"#utility.yul\":13157:13162   */\n      dup3\n        /* \"#utility.yul\":13153:13166   */\n      add\n        /* \"#utility.yul\":13146:13166   */\n      swap1\n      pop\n        /* \"#utility.yul\":12939:13172   */\n      swap2\n      swap1\n      pop\n      jump\t// out\n\n    auxdata: 0xa2646970667358221220bc76e8a4dbf154d474749f158aeb75461b8d815909aadb3799ed69fff430ee1464736f6c63430008120033\n}\n",
				"bytecode": {
					"linkReferences": {},
					"object": "608060405234801561001057600080fd5b50610c22806100206000396000f3fe608060405234801561001057600080fd5b506004361061004c5760003560e01c806355d0ad181461005157806393790f441461006f57806399142b5f1461009f578063af42d106146100bb575b600080fd5b6100596100d7565b604051610066919061054a565b60405180910390f35b610089600480360381019061008491906105de565b61016c565b604051610096919061069b565b60405180910390f35b6100b960048036038101906100b491906107f2565b610240565b005b6100d560048036038101906100d0919061084e565b6103b5565b005b6060600160003373ffffffffffffffffffffffffffffffffffffffff1673ffffffffffffffffffffffffffffffffffffffff16815260200190815260200160002080548060200260200160405190810160405280929190818152602001828054801561016257602002820191906000526020600020905b81548152602001906001019080831161014e575b5050505050905090565b6060600460008373ffffffffffffffffffffffffffffffffffffffff1673ffffffffffffffffffffffffffffffffffffffff16815260200190815260200160002060010180546101bb906108c6565b80601f01602080910402602001604051908101604052809291908181526020018280546101e7906108c6565b80156102345780601f1061020957610100808354040283529160200191610234565b820191906000526020600020905b81548152906001019060200180831161021757829003601f168201915b50505050509050919050565b80600360008054815260200190815260200160002090816102619190610aa3565b50600160008373ffffffffffffffffffffffffffffffffffffffff1673ffffffffffffffffffffffffffffffffffffffff1681526020019081526020016000206000549080600181540180825580915050600190039060005260206000200160009091909190915055600260003373ffffffffffffffffffffffffffffffffffffffff1673ffffffffffffffffffffffffffffffffffffffff16815260200190815260200160002060005490806001815401808255809150506001900390600052602060002001600090919091909150556000548273ffffffffffffffffffffffffffffffffffffffff163373ffffffffffffffffffffffffffffffffffffffff167f02605d54d67ccbe0064a8ce6c39465102dd02b85ad8709391c5953a27083964b84604051610392919061069b565b60405180910390a46000808154809291906103ac90610ba4565b91905055505050565b60405180604001604052803373ffffffffffffffffffffffffffffffffffffffff16815260200182815250600460003373ffffffffffffffffffffffffffffffffffffffff1673ffffffffffffffffffffffffffffffffffffffff16815260200190815260200160002060008201518160000160006101000a81548173ffffffffffffffffffffffffffffffffffffffff021916908373ffffffffffffffffffffffffffffffffffffffff160217905550602082015181600101908161047b9190610aa3565b5090505050565b600081519050919050565b600082825260208201905092915050565b6000819050602082019050919050565b6000819050919050565b6104c1816104ae565b82525050565b60006104d383836104b8565b60208301905092915050565b6000602082019050919050565b60006104f782610482565b610501818561048d565b935061050c8361049e565b8060005b8381101561053d57815161052488826104c7565b975061052f836104df565b925050600181019050610510565b5085935050505092915050565b6000602082019050818103600083015261056481846104ec565b905092915050565b6000604051905090565b600080fd5b600080fd5b600073ffffffffffffffffffffffffffffffffffffffff82169050919050565b60006105ab82610580565b9050919050565b6105bb816105a0565b81146105c657600080fd5b50565b6000813590506105d8816105b2565b92915050565b6000602082840312156105f4576105f3610576565b5b6000610602848285016105c9565b91505092915050565b600081519050919050565b600082825260208201905092915050565b60005b8381101561064557808201518184015260208101905061062a565b60008484015250505050565b6000601f19601f8301169050919050565b600061066d8261060b565b6106778185610616565b9350610687818560208601610627565b61069081610651565b840191505092915050565b600060208201905081810360008301526106b58184610662565b905092915050565b600080fd5b600080fd5b7f4e487b7100000000000000000000000000000000000000000000000000000000600052604160045260246000fd5b6106ff82610651565b810181811067ffffffffffffffff8211171561071e5761071d6106c7565b5b80604052505050565b600061073161056c565b905061073d82826106f6565b919050565b600067ffffffffffffffff82111561075d5761075c6106c7565b5b61076682610651565b9050602081019050919050565b82818337600083830152505050565b600061079561079084610742565b610727565b9050828152602081018484840111156107b1576107b06106c2565b5b6107bc848285610773565b509392505050565b600082601f8301126107d9576107d86106bd565b5b81356107e9848260208601610782565b91505092915050565b6000806040838503121561080957610808610576565b5b6000610817858286016105c9565b925050602083013567ffffffffffffffff8111156108385761083761057b565b5b610844858286016107c4565b9150509250929050565b60006020828403121561086457610863610576565b5b600082013567ffffffffffffffff8111156108825761088161057b565b5b61088e848285016107c4565b91505092915050565b7f4e487b7100000000000000000000000000000000000000000000000000000000600052602260045260246000fd5b600060028204905060018216806108de57607f821691505b6020821081036108f1576108f0610897565b5b50919050565b60008190508160005260206000209050919050565b60006020601f8301049050919050565b600082821b905092915050565b6000600883026109597fffffffffffffffffffffffffffffffffffffffffffffffffffffffffffffffff8261091c565b610963868361091c565b95508019841693508086168417925050509392505050565b6000819050919050565b60006109a061099b610996846104ae565b61097b565b6104ae565b9050919050565b6000819050919050565b6109ba83610985565b6109ce6109c6826109a7565b848454610929565b825550505050565b600090565b6109e36109d6565b6109ee8184846109b1565b505050565b5b81811015610a1257610a076000826109db565b6001810190506109f4565b5050565b601f821115610a5757610a28816108f7565b610a318461090c565b81016020851015610a40578190505b610a54610a4c8561090c565b8301826109f3565b50505b505050565b600082821c905092915050565b6000610a7a60001984600802610a5c565b1980831691505092915050565b6000610a938383610a69565b9150826002028217905092915050565b610aac8261060b565b67ffffffffffffffff811115610ac557610ac46106c7565b5b610acf82546108c6565b610ada828285610a16565b600060209050601f831160018114610b0d5760008415610afb578287015190505b610b058582610a87565b865550610b6d565b601f198416610b1b866108f7565b60005b82811015610b4357848901518255600182019150602085019450602081019050610b1e565b86831015610b605784890151610b5c601f891682610a69565b8355505b6001600288020188555050505b505050505050565b7f4e487b7100000000000000000000000000000000000000000000000000000000600052601160045260246000fd5b6000610baf826104ae565b91507fffffffffffffffffffffffffffffffffffffffffffffffffffffffffffffffff8203610be157610be0610b75565b5b60018201905091905056fea2646970667358221220bc76e8a4dbf154d474749f158aeb75461b8d815909aadb3799ed69fff430ee1464736f6c63430008120033",
					"opcodes": "PUSH1 0x80 PUSH1 0x40 MSTORE CALLVALUE DUP1 ISZERO PUSH2 0x10 JUMPI PUSH1 0x0 DUP1 REVERT JUMPDEST POP PUSH2 0xC22 DUP1 PUSH2 0x20 PUSH1 0x0 CODECOPY PUSH1 0x0 RETURN INVALID PUSH1 0x80 PUSH1 0x40 MSTORE CALLVALUE DUP1 ISZERO PUSH2 0x10 JUMPI PUSH1 0x0 DUP1 REVERT JUMPDEST POP PUSH1 0x4 CALLDATASIZE LT PUSH2 0x4C JUMPI PUSH1 0x0 CALLDATALOAD PUSH1 0xE0 SHR DUP1 PUSH4 0x55D0AD18 EQ PUSH2 0x51 JUMPI DUP1 PUSH4 0x93790F44 EQ PUSH2 0x6F JUMPI DUP1 PUSH4 0x99142B5F EQ PUSH2 0x9F JUMPI DUP1 PUSH4 0xAF42D106 EQ PUSH2 0xBB JUMPI JUMPDEST PUSH1 0x0 DUP1 REVERT JUMPDEST PUSH2 0x59 PUSH2 0xD7 JUMP JUMPDEST PUSH1 0x40 MLOAD PUSH2 0x66 SWAP2 SWAP1 PUSH2 0x54A JUMP JUMPDEST PUSH1 0x40 MLOAD DUP1 SWAP2 SUB SWAP1 RETURN JUMPDEST PUSH2 0x89 PUSH1 0x4 DUP1 CALLDATASIZE SUB DUP2 ADD SWAP1 PUSH2 0x84 SWAP2 SWAP1 PUSH2 0x5DE JUMP JUMPDEST PUSH2 0x16C JUMP JUMPDEST PUSH1 0x40 MLOAD PUSH2 0x96 SWAP2 SWAP1 PUSH2 0x69B JUMP JUMPDEST PUSH1 0x40 MLOAD DUP1 SWAP2 SUB SWAP1 RETURN JUMPDEST PUSH2 0xB9 PUSH1 0x4 DUP1 CALLDATASIZE SUB DUP2 ADD SWAP1 PUSH2 0xB4 SWAP2 SWAP1 PUSH2 0x7F2 JUMP JUMPDEST PUSH2 0x240 JUMP JUMPDEST STOP JUMPDEST PUSH2 0xD5 PUSH1 0x4 DUP1 CALLDATASIZE SUB DUP2 ADD SWAP1 PUSH2 0xD0 SWAP2 SWAP1 PUSH2 0x84E JUMP JUMPDEST PUSH2 0x3B5 JUMP JUMPDEST STOP JUMPDEST PUSH1 0x60 PUSH1 0x1 PUSH1 0x0 CALLER PUSH20 0xFFFFFFFFFFFFFFFFFFFFFFFFFFFFFFFFFFFFFFFF AND PUSH20 0xFFFFFFFFFFFFFFFFFFFFFFFFFFFFFFFFFFFFFFFF AND DUP2 MSTORE PUSH1 0x20 ADD SWAP1 DUP2 MSTORE PUSH1 0x20 ADD PUSH1 0x0 KECCAK256 DUP1 SLOAD DUP1 PUSH1 0x20 MUL PUSH1 0x20 ADD PUSH1 0x40 MLOAD SWAP1 DUP2 ADD PUSH1 0x40 MSTORE DUP1 SWAP3 SWAP2 SWAP1 DUP2 DUP2 MSTORE PUSH1 0x20 ADD DUP3 DUP1 SLOAD DUP1 ISZERO PUSH2 0x162 JUMPI PUSH1 0x20 MUL DUP3 ADD SWAP2 SWAP1 PUSH1 0x0 MSTORE PUSH1 0x20 PUSH1 0x0 KECCAK256 SWAP1 JUMPDEST DUP2 SLOAD DUP2 MSTORE PUSH1 0x20 ADD SWAP1 PUSH1 0x1 ADD SWAP1 DUP1 DUP4 GT PUSH2 0x14E JUMPI JUMPDEST POP POP POP POP POP SWAP1 POP SWAP1 JUMP JUMPDEST PUSH1 0x60 PUSH1 0x4 PUSH1 0x0 DUP4 PUSH20 0xFFFFFFFFFFFFFFFFFFFFFFFFFFFFFFFFFFFFFFFF AND PUSH20 0xFFFFFFFFFFFFFFFFFFFFFFFFFFFFFFFFFFFFFFFF AND DUP2 MSTORE PUSH1 0x20 ADD SWAP1 DUP2 MSTORE PUSH1 0x20 ADD PUSH1 0x0 KECCAK256 PUSH1 0x1 ADD DUP1 SLOAD PUSH2 0x1BB SWAP1 PUSH2 0x8C6 JUMP JUMPDEST DUP1 PUSH1 0x1F ADD PUSH1 0x20 DUP1 SWAP2 DIV MUL PUSH1 0x20 ADD PUSH1 0x40 MLOAD SWAP1 DUP2 ADD PUSH1 0x40 MSTORE DUP1 SWAP3 SWAP2 SWAP1 DUP2 DUP2 MSTORE PUSH1 0x20 ADD DUP3 DUP1 SLOAD PUSH2 0x1E7 SWAP1 PUSH2 0x8C6 JUMP JUMPDEST DUP1 ISZERO PUSH2 0x234 JUMPI DUP1 PUSH1 0x1F LT PUSH2 0x209 JUMPI PUSH2 0x100 DUP1 DUP4 SLOAD DIV MUL DUP4 MSTORE SWAP2 PUSH1 0x20 ADD SWAP2 PUSH2 0x234 JUMP JUMPDEST DUP3 ADD SWAP2 SWAP1 PUSH1 0x0 MSTORE PUSH1 0x20 PUSH1 0x0 KECCAK256 SWAP1 JUMPDEST DUP2 SLOAD DUP2 MSTORE SWAP1 PUSH1 0x1 ADD SWAP1 PUSH1 0x20 ADD DUP1 DUP4 GT PUSH2 0x217 JUMPI DUP3 SWAP1 SUB PUSH1 0x1F AND DUP3 ADD SWAP2 JUMPDEST POP POP POP POP POP SWAP1 POP SWAP2 SWAP1 POP JUMP JUMPDEST DUP1 PUSH1 0x3 PUSH1 0x0 DUP1 SLOAD DUP2 MSTORE PUSH1 0x20 ADD SWAP1 DUP2 MSTORE PUSH1 0x20 ADD PUSH1 0x0 KECCAK256 SWAP1 DUP2 PUSH2 0x261 SWAP2 SWAP1 PUSH2 0xAA3 JUMP JUMPDEST POP PUSH1 0x1 PUSH1 0x0 DUP4 PUSH20 0xFFFFFFFFFFFFFFFFFFFFFFFFFFFFFFFFFFFFFFFF AND PUSH20 0xFFFFFFFFFFFFFFFFFFFFFFFFFFFFFFFFFFFFFFFF AND DUP2 MSTORE PUSH1 0x20 ADD SWAP1 DUP2 MSTORE PUSH1 0x20 ADD PUSH1 0x0 KECCAK256 PUSH1 0x0 SLOAD SWAP1 DUP1 PUSH1 0x1 DUP2 SLOAD ADD DUP1 DUP3 SSTORE DUP1 SWAP2 POP POP PUSH1 0x1 SWAP1 SUB SWAP1 PUSH1 0x0 MSTORE PUSH1 0x20 PUSH1 0x0 KECCAK256 ADD PUSH1 0x0 SWAP1 SWAP2 SWAP1 SWAP2 SWAP1 SWAP2 POP SSTORE PUSH1 0x2 PUSH1 0x0 CALLER PUSH20 0xFFFFFFFFFFFFFFFFFFFFFFFFFFFFFFFFFFFFFFFF AND PUSH20 0xFFFFFFFFFFFFFFFFFFFFFFFFFFFFFFFFFFFFFFFF AND DUP2 MSTORE PUSH1 0x20 ADD SWAP1 DUP2 MSTORE PUSH1 0x20 ADD PUSH1 0x0 KECCAK256 PUSH1 0x0 SLOAD SWAP1 DUP1 PUSH1 0x1 DUP2 SLOAD ADD DUP1 DUP3 SSTORE DUP1 SWAP2 POP POP PUSH1 0x1 SWAP1 SUB SWAP1 PUSH1 0x0 MSTORE PUSH1 0x20 PUSH1 0x0 KECCAK256 ADD PUSH1 0x0 SWAP1 SWAP2 SWAP1 SWAP2 SWAP1 SWAP2 POP SSTORE PUSH1 0x0 SLOAD DUP3 PUSH20 0xFFFFFFFFFFFFFFFFFFFFFFFFFFFFFFFFFFFFFFFF AND CALLER PUSH20 0xFFFFFFFFFFFFFFFFFFFFFFFFFFFFFFFFFFFFFFFF AND PUSH32 0x2605D54D67CCBE0064A8CE6C39465102DD02B85AD8709391C5953A27083964B DUP5 PUSH1 0x40 MLOAD PUSH2 0x392 SWAP2 SWAP1 PUSH2 0x69B JUMP JUMPDEST PUSH1 0x40 MLOAD DUP1 SWAP2 SUB SWAP1 LOG4 PUSH1 0x0 DUP1 DUP2 SLOAD DUP1 SWAP3 SWAP2 SWAP1 PUSH2 0x3AC SWAP1 PUSH2 0xBA4 JUMP JUMPDEST SWAP2 SWAP1 POP SSTORE POP POP POP JUMP JUMPDEST PUSH1 0x40 MLOAD DUP1 PUSH1 0x40 ADD PUSH1 0x40 MSTORE DUP1 CALLER PUSH20 0xFFFFFFFFFFFFFFFFFFFFFFFFFFFFFFFFFFFFFFFF AND DUP2 MSTORE PUSH1 0x20 ADD DUP3 DUP2 MSTORE POP PUSH1 0x4 PUSH1 0x0 CALLER PUSH20 0xFFFFFFFFFFFFFFFFFFFFFFFFFFFFFFFFFFFFFFFF AND PUSH20 0xFFFFFFFFFFFFFFFFFFFFFFFFFFFFFFFFFFFFFFFF AND DUP2 MSTORE PUSH1 0x20 ADD SWAP1 DUP2 MSTORE PUSH1 0x20 ADD PUSH1 0x0 KECCAK256 PUSH1 0x0 DUP3 ADD MLOAD DUP2 PUSH1 0x0 ADD PUSH1 0x0 PUSH2 0x100 EXP DUP2 SLOAD DUP2 PUSH20 0xFFFFFFFFFFFFFFFFFFFFFFFFFFFFFFFFFFFFFFFF MUL NOT AND SWAP1 DUP4 PUSH20 0xFFFFFFFFFFFFFFFFFFFFFFFFFFFFFFFFFFFFFFFF AND MUL OR SWAP1 SSTORE POP PUSH1 0x20 DUP3 ADD MLOAD DUP2 PUSH1 0x1 ADD SWAP1 DUP2 PUSH2 0x47B SWAP2 SWAP1 PUSH2 0xAA3 JUMP JUMPDEST POP SWAP1 POP POP POP JUMP JUMPDEST PUSH1 0x0 DUP2 MLOAD SWAP1 POP SWAP2 SWAP1 POP JUMP JUMPDEST PUSH1 0x0 DUP3 DUP3 MSTORE PUSH1 0x20 DUP3 ADD SWAP1 POP SWAP3 SWAP2 POP POP JUMP JUMPDEST PUSH1 0x0 DUP2 SWAP1 POP PUSH1 0x20 DUP3 ADD SWAP1 POP SWAP2 SWAP1 POP JUMP JUMPDEST PUSH1 0x0 DUP2 SWAP1 POP SWAP2 SWAP1 POP JUMP JUMPDEST PUSH2 0x4C1 DUP2 PUSH2 0x4AE JUMP JUMPDEST DUP3 MSTORE POP POP JUMP JUMPDEST PUSH1 0x0 PUSH2 0x4D3 DUP4 DUP4 PUSH2 0x4B8 JUMP JUMPDEST PUSH1 0x20 DUP4 ADD SWAP1 POP SWAP3 SWAP2 POP POP JUMP JUMPDEST PUSH1 0x0 PUSH1 0x20 DUP3 ADD SWAP1 POP SWAP2 SWAP1 POP JUMP JUMPDEST PUSH1 0x0 PUSH2 0x4F7 DUP3 PUSH2 0x482 JUMP JUMPDEST PUSH2 0x501 DUP2 DUP6 PUSH2 0x48D JUMP JUMPDEST SWAP4 POP PUSH2 0x50C DUP4 PUSH2 0x49E JUMP JUMPDEST DUP1 PUSH1 0x0 JUMPDEST DUP4 DUP2 LT ISZERO PUSH2 0x53D JUMPI DUP2 MLOAD PUSH2 0x524 DUP9 DUP3 PUSH2 0x4C7 JUMP JUMPDEST SWAP8 POP PUSH2 0x52F DUP4 PUSH2 0x4DF JUMP JUMPDEST SWAP3 POP POP PUSH1 0x1 DUP2 ADD SWAP1 POP PUSH2 0x510 JUMP JUMPDEST POP DUP6 SWAP4 POP POP POP POP SWAP3 SWAP2 POP POP JUMP JUMPDEST PUSH1 0x0 PUSH1 0x20 DUP3 ADD SWAP1 POP DUP2 DUP2 SUB PUSH1 0x0 DUP4 ADD MSTORE PUSH2 0x564 DUP2 DUP5 PUSH2 0x4EC JUMP JUMPDEST SWAP1 POP SWAP3 SWAP2 POP POP JUMP JUMPDEST PUSH1 0x0 PUSH1 0x40 MLOAD SWAP1 POP SWAP1 JUMP JUMPDEST PUSH1 0x0 DUP1 REVERT JUMPDEST PUSH1 0x0 DUP1 REVERT JUMPDEST PUSH1 0x0 PUSH20 0xFFFFFFFFFFFFFFFFFFFFFFFFFFFFFFFFFFFFFFFF DUP3 AND SWAP1 POP SWAP2 SWAP1 POP JUMP JUMPDEST PUSH1 0x0 PUSH2 0x5AB DUP3 PUSH2 0x580 JUMP JUMPDEST SWAP1 POP SWAP2 SWAP1 POP JUMP JUMPDEST PUSH2 0x5BB DUP2 PUSH2 0x5A0 JUMP JUMPDEST DUP2 EQ PUSH2 0x5C6 JUMPI PUSH1 0x0 DUP1 REVERT JUMPDEST POP JUMP JUMPDEST PUSH1 0x0 DUP2 CALLDATALOAD SWAP1 POP PUSH2 0x5D8 DUP2 PUSH2 0x5B2 JUMP JUMPDEST SWAP3 SWAP2 POP POP JUMP JUMPDEST PUSH1 0x0 PUSH1 0x20 DUP3 DUP5 SUB SLT ISZERO PUSH2 0x5F4 JUMPI PUSH2 0x5F3 PUSH2 0x576 JUMP JUMPDEST JUMPDEST PUSH1 0x0 PUSH2 0x602 DUP5 DUP3 DUP6 ADD PUSH2 0x5C9 JUMP JUMPDEST SWAP2 POP POP SWAP3 SWAP2 POP POP JUMP JUMPDEST PUSH1 0x0 DUP2 MLOAD SWAP1 POP SWAP2 SWAP1 POP JUMP JUMPDEST PUSH1 0x0 DUP3 DUP3 MSTORE PUSH1 0x20 DUP3 ADD SWAP1 POP SWAP3 SWAP2 POP POP JUMP JUMPDEST PUSH1 0x0 JUMPDEST DUP4 DUP2 LT ISZERO PUSH2 0x645 JUMPI DUP1 DUP3 ADD MLOAD DUP2 DUP5 ADD MSTORE PUSH1 0x20 DUP2 ADD SWAP1 POP PUSH2 0x62A JUMP JUMPDEST PUSH1 0x0 DUP5 DUP5 ADD MSTORE POP POP POP POP JUMP JUMPDEST PUSH1 0x0 PUSH1 0x1F NOT PUSH1 0x1F DUP4 ADD AND SWAP1 POP SWAP2 SWAP1 POP JUMP JUMPDEST PUSH1 0x0 PUSH2 0x66D DUP3 PUSH2 0x60B JUMP JUMPDEST PUSH2 0x677 DUP2 DUP6 PUSH2 0x616 JUMP JUMPDEST SWAP4 POP PUSH2 0x687 DUP2 DUP6 PUSH1 0x20 DUP7 ADD PUSH2 0x627 JUMP JUMPDEST PUSH2 0x690 DUP2 PUSH2 0x651 JUMP JUMPDEST DUP5 ADD SWAP2 POP POP SWAP3 SWAP2 POP POP JUMP JUMPDEST PUSH1 0x0 PUSH1 0x20 DUP3 ADD SWAP1 POP DUP2 DUP2 SUB PUSH1 0x0 DUP4 ADD MSTORE PUSH2 0x6B5 DUP2 DUP5 PUSH2 0x662 JUMP JUMPDEST SWAP1 POP SWAP3 SWAP2 POP POP JUMP JUMPDEST PUSH1 0x0 DUP1 REVERT JUMPDEST PUSH1 0x0 DUP1 REVERT JUMPDEST PUSH32 0x4E487B7100000000000000000000000000000000000000000000000000000000 PUSH1 0x0 MSTORE PUSH1 0x41 PUSH1 0x4 MSTORE PUSH1 0x24 PUSH1 0x0 REVERT JUMPDEST PUSH2 0x6FF DUP3 PUSH2 0x651 JUMP JUMPDEST DUP2 ADD DUP2 DUP2 LT PUSH8 0xFFFFFFFFFFFFFFFF DUP3 GT OR ISZERO PUSH2 0x71E JUMPI PUSH2 0x71D PUSH2 0x6C7 JUMP JUMPDEST JUMPDEST DUP1 PUSH1 0x40 MSTORE POP POP POP JUMP JUMPDEST PUSH1 0x0 PUSH2 0x731 PUSH2 0x56C JUMP JUMPDEST SWAP1 POP PUSH2 0x73D DUP3 DUP3 PUSH2 0x6F6 JUMP JUMPDEST SWAP2 SWAP1 POP JUMP JUMPDEST PUSH1 0x0 PUSH8 0xFFFFFFFFFFFFFFFF DUP3 GT ISZERO PUSH2 0x75D JUMPI PUSH2 0x75C PUSH2 0x6C7 JUMP JUMPDEST JUMPDEST PUSH2 0x766 DUP3 PUSH2 0x651 JUMP JUMPDEST SWAP1 POP PUSH1 0x20 DUP2 ADD SWAP1 POP SWAP2 SWAP1 POP JUMP JUMPDEST DUP3 DUP2 DUP4 CALLDATACOPY PUSH1 0x0 DUP4 DUP4 ADD MSTORE POP POP POP JUMP JUMPDEST PUSH1 0x0 PUSH2 0x795 PUSH2 0x790 DUP5 PUSH2 0x742 JUMP JUMPDEST PUSH2 0x727 JUMP JUMPDEST SWAP1 POP DUP3 DUP2 MSTORE PUSH1 0x20 DUP2 ADD DUP5 DUP5 DUP5 ADD GT ISZERO PUSH2 0x7B1 JUMPI PUSH2 0x7B0 PUSH2 0x6C2 JUMP JUMPDEST JUMPDEST PUSH2 0x7BC DUP5 DUP3 DUP6 PUSH2 0x773 JUMP JUMPDEST POP SWAP4 SWAP3 POP POP POP JUMP JUMPDEST PUSH1 0x0 DUP3 PUSH1 0x1F DUP4 ADD SLT PUSH2 0x7D9 JUMPI PUSH2 0x7D8 PUSH2 0x6BD JUMP JUMPDEST JUMPDEST DUP2 CALLDATALOAD PUSH2 0x7E9 DUP5 DUP3 PUSH1 0x20 DUP7 ADD PUSH2 0x782 JUMP JUMPDEST SWAP2 POP POP SWAP3 SWAP2 POP POP JUMP JUMPDEST PUSH1 0x0 DUP1 PUSH1 0x40 DUP4 DUP6 SUB SLT ISZERO PUSH2 0x809 JUMPI PUSH2 0x808 PUSH2 0x576 JUMP JUMPDEST JUMPDEST PUSH1 0x0 PUSH2 0x817 DUP6 DUP3 DUP7 ADD PUSH2 0x5C9 JUMP JUMPDEST SWAP3 POP POP PUSH1 0x20 DUP4 ADD CALLDATALOAD PUSH8 0xFFFFFFFFFFFFFFFF DUP2 GT ISZERO PUSH2 0x838 JUMPI PUSH2 0x837 PUSH2 0x57B JUMP JUMPDEST JUMPDEST PUSH2 0x844 DUP6 DUP3 DUP7 ADD PUSH2 0x7C4 JUMP JUMPDEST SWAP2 POP POP SWAP3 POP SWAP3 SWAP1 POP JUMP JUMPDEST PUSH1 0x0 PUSH1 0x20 DUP3 DUP5 SUB SLT ISZERO PUSH2 0x864 JUMPI PUSH2 0x863 PUSH2 0x576 JUMP JUMPDEST JUMPDEST PUSH1 0x0 DUP3 ADD CALLDATALOAD PUSH8 0xFFFFFFFFFFFFFFFF DUP2 GT ISZERO PUSH2 0x882 JUMPI PUSH2 0x881 PUSH2 0x57B JUMP JUMPDEST JUMPDEST PUSH2 0x88E DUP5 DUP3 DUP6 ADD PUSH2 0x7C4 JUMP JUMPDEST SWAP2 POP POP SWAP3 SWAP2 POP POP JUMP JUMPDEST PUSH32 0x4E487B7100000000000000000000000000000000000000000000000000000000 PUSH1 0x0 MSTORE PUSH1 0x22 PUSH1 0x4 MSTORE PUSH1 0x24 PUSH1 0x0 REVERT JUMPDEST PUSH1 0x0 PUSH1 0x2 DUP3 DIV SWAP1 POP PUSH1 0x1 DUP3 AND DUP1 PUSH2 0x8DE JUMPI PUSH1 0x7F DUP3 AND SWAP2 POP JUMPDEST PUSH1 0x20 DUP3 LT DUP2 SUB PUSH2 0x8F1 JUMPI PUSH2 0x8F0 PUSH2 0x897 JUMP JUMPDEST JUMPDEST POP SWAP2 SWAP1 POP JUMP JUMPDEST PUSH1 0x0 DUP2 SWAP1 POP DUP2 PUSH1 0x0 MSTORE PUSH1 0x20 PUSH1 0x0 KECCAK256 SWAP1 POP SWAP2 SWAP1 POP JUMP JUMPDEST PUSH1 0x0 PUSH1 0x20 PUSH1 0x1F DUP4 ADD DIV SWAP1 POP SWAP2 SWAP1 POP JUMP JUMPDEST PUSH1 0x0 DUP3 DUP3 SHL SWAP1 POP SWAP3 SWAP2 POP POP JUMP JUMPDEST PUSH1 0x0 PUSH1 0x8 DUP4 MUL PUSH2 0x959 PUSH32 0xFFFFFFFFFFFFFFFFFFFFFFFFFFFFFFFFFFFFFFFFFFFFFFFFFFFFFFFFFFFFFFFF DUP3 PUSH2 0x91C JUMP JUMPDEST PUSH2 0x963 DUP7 DUP4 PUSH2 0x91C JUMP JUMPDEST SWAP6 POP DUP1 NOT DUP5 AND SWAP4 POP DUP1 DUP7 AND DUP5 OR SWAP3 POP POP POP SWAP4 SWAP3 POP POP POP JUMP JUMPDEST PUSH1 0x0 DUP2 SWAP1 POP SWAP2 SWAP1 POP JUMP JUMPDEST PUSH1 0x0 PUSH2 0x9A0 PUSH2 0x99B PUSH2 0x996 DUP5 PUSH2 0x4AE JUMP JUMPDEST PUSH2 0x97B JUMP JUMPDEST PUSH2 0x4AE JUMP JUMPDEST SWAP1 POP SWAP2 SWAP1 POP JUMP JUMPDEST PUSH1 0x0 DUP2 SWAP1 POP SWAP2 SWAP1 POP JUMP JUMPDEST PUSH2 0x9BA DUP4 PUSH2 0x985 JUMP JUMPDEST PUSH2 0x9CE PUSH2 0x9C6 DUP3 PUSH2 0x9A7 JUMP JUMPDEST DUP5 DUP5 SLOAD PUSH2 0x929 JUMP JUMPDEST DUP3 SSTORE POP POP POP POP JUMP JUMPDEST PUSH1 0x0 SWAP1 JUMP JUMPDEST PUSH2 0x9E3 PUSH2 0x9D6 JUMP JUMPDEST PUSH2 0x9EE DUP2 DUP5 DUP5 PUSH2 0x9B1 JUMP JUMPDEST POP POP POP JUMP JUMPDEST JUMPDEST DUP2 DUP2 LT ISZERO PUSH2 0xA12 JUMPI PUSH2 0xA07 PUSH1 0x0 DUP3 PUSH2 0x9DB JUMP JUMPDEST PUSH1 0x1 DUP2 ADD SWAP1 POP PUSH2 0x9F4 JUMP JUMPDEST POP POP JUMP JUMPDEST PUSH1 0x1F DUP3 GT ISZERO PUSH2 0xA57 JUMPI PUSH2 0xA28 DUP2 PUSH2 0x8F7 JUMP JUMPDEST PUSH2 0xA31 DUP5 PUSH2 0x90C JUMP JUMPDEST DUP2 ADD PUSH1 0x20 DUP6 LT ISZERO PUSH2 0xA40 JUMPI DUP2 SWAP1 POP JUMPDEST PUSH2 0xA54 PUSH2 0xA4C DUP6 PUSH2 0x90C JUMP JUMPDEST DUP4 ADD DUP3 PUSH2 0x9F3 JUMP JUMPDEST POP POP JUMPDEST POP POP POP JUMP JUMPDEST PUSH1 0x0 DUP3 DUP3 SHR SWAP1 POP SWAP3 SWAP2 POP POP JUMP JUMPDEST PUSH1 0x0 PUSH2 0xA7A PUSH1 0x0 NOT DUP5 PUSH1 0x8 MUL PUSH2 0xA5C JUMP JUMPDEST NOT DUP1 DUP4 AND SWAP2 POP POP SWAP3 SWAP2 POP POP JUMP JUMPDEST PUSH1 0x0 PUSH2 0xA93 DUP4 DUP4 PUSH2 0xA69 JUMP JUMPDEST SWAP2 POP DUP3 PUSH1 0x2 MUL DUP3 OR SWAP1 POP SWAP3 SWAP2 POP POP JUMP JUMPDEST PUSH2 0xAAC DUP3 PUSH2 0x60B JUMP JUMPDEST PUSH8 0xFFFFFFFFFFFFFFFF DUP2 GT ISZERO PUSH2 0xAC5 JUMPI PUSH2 0xAC4 PUSH2 0x6C7 JUMP JUMPDEST JUMPDEST PUSH2 0xACF DUP3 SLOAD PUSH2 0x8C6 JUMP JUMPDEST PUSH2 0xADA DUP3 DUP3 DUP6 PUSH2 0xA16 JUMP JUMPDEST PUSH1 0x0 PUSH1 0x20 SWAP1 POP PUSH1 0x1F DUP4 GT PUSH1 0x1 DUP2 EQ PUSH2 0xB0D JUMPI PUSH1 0x0 DUP5 ISZERO PUSH2 0xAFB JUMPI DUP3 DUP8 ADD MLOAD SWAP1 POP JUMPDEST PUSH2 0xB05 DUP6 DUP3 PUSH2 0xA87 JUMP JUMPDEST DUP7 SSTORE POP PUSH2 0xB6D JUMP JUMPDEST PUSH1 0x1F NOT DUP5 AND PUSH2 0xB1B DUP7 PUSH2 0x8F7 JUMP JUMPDEST PUSH1 0x0 JUMPDEST DUP3 DUP2 LT ISZERO PUSH2 0xB43 JUMPI DUP5 DUP10 ADD MLOAD DUP3 SSTORE PUSH1 0x1 DUP3 ADD SWAP2 POP PUSH1 0x20 DUP6 ADD SWAP5 POP PUSH1 0x20 DUP2 ADD SWAP1 POP PUSH2 0xB1E JUMP JUMPDEST DUP7 DUP4 LT ISZERO PUSH2 0xB60 JUMPI DUP5 DUP10 ADD MLOAD PUSH2 0xB5C PUSH1 0x1F DUP10 AND DUP3 PUSH2 0xA69 JUMP JUMPDEST DUP4 SSTORE POP JUMPDEST PUSH1 0x1 PUSH1 0x2 DUP9 MUL ADD DUP9 SSTORE POP POP POP JUMPDEST POP POP POP POP POP POP JUMP JUMPDEST PUSH32 0x4E487B7100000000000000000000000000000000000000000000000000000000 PUSH1 0x0 MSTORE PUSH1 0x11 PUSH1 0x4 MSTORE PUSH1 0x24 PUSH1 0x0 REVERT JUMPDEST PUSH1 0x0 PUSH2 0xBAF DUP3 PUSH2 0x4AE JUMP JUMPDEST SWAP2 POP PUSH32 0xFFFFFFFFFFFFFFFFFFFFFFFFFFFFFFFFFFFFFFFFFFFFFFFFFFFFFFFFFFFFFFFF DUP3 SUB PUSH2 0xBE1 JUMPI PUSH2 0xBE0 PUSH2 0xB75 JUMP JUMPDEST JUMPDEST PUSH1 0x1 DUP3 ADD SWAP1 POP SWAP2 SWAP1 POP JUMP INVALID LOG2 PUSH5 0x6970667358 0x22 SLT KECCAK256 0xBC PUSH23 0xE8A4DBF154D474749F158AEB75461B8D815909AADB3799 0xED PUSH10 0xFFF430EE1464736F6C63 NUMBER STOP ADDMOD SLT STOP CALLER "
				},
				"gasEstimates": {
					"creation": {
						"codeDepositCost": "621200",
						"executionCost": "657",
						"totalCost": "621857"
					},
					"external": {
						"getKey(address)": "infinite",
						"getReceived()": "infinite",
						"send(address,string)": "infinite",
						"setKey(string)": "infinite"
					}
				},
				"methodIdentifiers": {
					"getKey(address)": "93790f44",
					"getReceived()": "55d0ad18",
					"send(address,string)": "99142b5f",
					"setKey(string)": "af42d106"
				}
			},
			"storageLayout": {
				"storage": [
					{
						"astId": 4,
						"contract": "ID-Mail.sol:IDMail",
						"label": "mailId",
						"offset": 0,
						"slot": "0",
						"type": "t_uint256"
					},
					{
						"astId": 9,
						"contract": "ID-Mail.sol:IDMail",
						"label": "mailReceived",
						"offset": 0,
						"slot": "1",
						"type": "t_mapping(t_address,t_array(t_uint256)dyn_storage)"
					},
					{
						"astId": 14,
						"contract": "ID-Mail.sol:IDMail",
						"label": "mailSent",
						"offset": 0,
						"slot": "2",
						"type": "t_mapping(t_address,t_array(t_uint256)dyn_storage)"
					},
					{
						"astId": 18,
						"contract": "ID-Mail.sol:IDMail",
						"label": "mailContent",
						"offset": 0,
						"slot": "3",
						"type": "t_mapping(t_uint256,t_string_storage)"
					},
					{
						"astId": 28,
						"contract": "ID-Mail.sol:IDMail",
						"label": "profiles",
						"offset": 0,
						"slot": "4",
						"type": "t_mapping(t_address,t_struct(Profile)23_storage)"
					}
				],
				"types": {
					"t_address": {
						"encoding": "inplace",
						"label": "address",
						"numberOfBytes": "20"
					},
					"t_array(t_uint256)dyn_storage": {
						"base": "t_uint256",
						"encoding": "dynamic_array",
						"label": "uint256[]",
						"numberOfBytes": "32"
					},
					"t_mapping(t_address,t_array(t_uint256)dyn_storage)": {
						"encoding": "mapping",
						"key": "t_address",
						"label": "mapping(address => uint256[])",
						"numberOfBytes": "32",
						"value": "t_array(t_uint256)dyn_storage"
					},
					"t_mapping(t_address,t_struct(Profile)23_storage)": {
						"encoding": "mapping",
						"key": "t_address",
						"label": "mapping(address => struct IDMail.Profile)",
						"numberOfBytes": "32",
						"value": "t_struct(Profile)23_storage"
					},
					"t_mapping(t_uint256,t_string_storage)": {
						"encoding": "mapping",
						"key": "t_uint256",
						"label": "mapping(uint256 => string)",
						"numberOfBytes": "32",
						"value": "t_string_storage"
					},
					"t_string_storage": {
						"encoding": "bytes",
						"label": "string",
						"numberOfBytes": "32"
					},
					"t_struct(Profile)23_storage": {
						"encoding": "inplace",
						"label": "struct IDMail.Profile",
						"members": [
							{
								"astId": 20,
								"contract": "ID-Mail.sol:IDMail",
								"label": "id",
								"offset": 0,
								"slot": "0",
								"type": "t_address"
							},
							{
								"astId": 22,
								"contract": "ID-Mail.sol:IDMail",
								"label": "pubKey",
								"offset": 0,
								"slot": "1",
								"type": "t_string_storage"
							}
						],
						"numberOfBytes": "64"
					},
					"t_uint256": {
						"encoding": "inplace",
						"label": "uint256",
						"numberOfBytes": "32"
					}
				}
			},
			"userdoc": {
				"kind": "user",
				"methods": {
					"setKey(string)": {
						"notice": "pengaturan Public Key pengguna"
					}
				},
				"notice": "Nama Aplikasi: ID-Mail",
				"version": 1
			}
		}
	}
}